:100000000C94B8020C94D5020C94D5020C94D50231
:100010000C94D5020C94D5020C94D5020C94D50204
:100020000C94D5020C94D5020C949F0D0C94531291
:100030000C945E210C94D5020C94D5020C94D5023C
:100040000C94D5020C94D5020C94D5020C94D502D4
:100050000C94D5020C94760E0C94D5020C94D50217
:100060000C94D5020C94D5020C94D5020C94D502B4
:100070000C94D5020C94D5020C94D5020C94D502A4
:100080000C94D5020C94D5020C94D5020C94D50294
:100090000C94D5020C94D5020C94D5020C94D50284
:1000A0000C94D5020C94D5020C94D502050109805C
:1000B000A101850319012AB700150126B700950192
:1000C00075108100C0050C0901A101850419012AE0
:1000D000A002150126A002950175108100C005013E
:1000E0000906A1018505050719E029E71500250185
:1000F0009508750181020507190029EF15002501F2
:1001000095F075018102050819012905950575010C
:100110009102950175039101C005010902A1010930
:1001200001A100050919012905150025019505758D
:10013000018102950175038101050109300931151D
:1001400081257F95027508810609381581257F95DF
:100150000175088106050C0A38021581257F950175
:1001600075088106C0C005010906A101050719E04F
:1001700029E715002501950875018102950175088B
:1001800081010507190029FF150026FF0095067556
:100190000881000508190129059505750191029549
:1001A0000175039101C029002B00E000E1003541F9
:1001B00000001E00140004001D41095D4D001F00D9
:1001C0001A0016001B00E1042A00200008000700A6
:1001D000060050002C6821001500090019004F008E
:1001E0004A00220017000A00050000006564500064
:1001F00001530000000F0000E3004F000153000016
:1002000000070000E20023001C000B0011000000AA
:100210002961240018000D00100052004B00250039
:100220000C000E00360051002C00260012000F00BA
:1002300037002F00280027001300334238423000D7
:100240004E002D0031003468E50001510000290006
:10025000010001000100010000003A001E0220021E
:1002600001002E002E5D3B002D02340038020100FB
:1002700001003C002F02360238000100CB5C3D003B
:10028000300237023100010001003E002E022D0035
:1002900035020000C45C0100010000000100000004
:1002A0002D5D01000100000001000000C35C3F0063
:1002B0002D021E02240200002C5D400021023702A4
:1002C000350001000100410026022F022F003700F7
:1002D000010042002702300230002202C75C4300C6
:1002E00020022E0031022E000100440045000100D2
:1002F00001000100000001000100010001000100F7
:1003000000000100010001000100095D0100010081
:10031000F400F2000100010001000100F000F10012
:100320000100F40001000100F500F3000100F500F8
:1003300001000100010001000100000001000100B6
:1003400001000000010000000100010001000000A8
:100350000100000001000100010001000100000097
:10036000010001000100500C0100A9000100010082
:10037000520C0057510CAA00B600010001004F0CAE
:10038000AB00A80001000100010001000100010014
:100390000100005C0100AE000100010000000A0045
:1003A000000000000306B200080001000000A800E1
:1003B000080002000300A0001400030057494E5536
:1003C0005342000000000000000000008400040010
:1003D00007002A004400650076006900630065009C
:1003E00049006E00740065007200660061006300E1
:1003F00065004700550049004400730000005000AC
:100400007B003900440042003700460031004600BE
:1004100044002D0037004500370041002D00340016
:100420003000300038002D00390033003600420023
:100430002D003600420041003600430031003900F3
:10044000410033003000380063007D0000000000F0
:100450001B0301636F6E6669677572652E6572674F
:100460006F646F782D657A2E636F6D0009026B00E3
:10047000040100A0FA0904000001030101000921A0
:10048000110100012240000705810308000A090448
:1004900001000103010200092111010001224D00A8
:1004A0000705820308000A09040200010300000096
:1004B000092111010001226D000705830320000AB4
:1004C0000904030002FF0000000705840340000543
:1004D00007050503400005120110020000000897FF
:1004E00032744901000102000116034500720067E1
:1004F000006F0044006F007800200045005A0000A3
:100500000030035A0053004100200054006500638E
:100510000068006E006F006C006F006700790020BB
:10052000004C00610062007300200049006E00630F
:1005300000000004030904050F3900021C10050027
:10054000DF60DDD88945C74C9CD2659D9E648A9F3B
:1005500000000306B20045001810050038B6083444
:10056000A909A0478BFDA0768815B6650001420059
:1005700011241FBECFEFDAE0DEBFCDBF11E0A0E057
:10058000B1E0E8E1F8E402C005900D92A637B107AA
:10059000D9F722E0A6E7B1E001C01D92A53AB20763
:1005A000E1F70E94F01D0C94DF230C940000E8EDAD
:1005B000F0E080818E7F80831092E2001092DA005A
:1005C0001092E100A0EEB0E08C9181608C9380816C
:1005D0008F77808319BCA7EDB0E08C918E7F8C93D0
:1005E00080818F7E808310926F0208952091E400B5
:1005F0003091E50095E6A9012091EC00822F8170F1
:1006000020FF06C08091E80080FF06C080E00895CA
:100610002091E80022FD1AC080919402882389F07D
:10062000853089F08091EB0085FD0FC02091E400BA
:100630003091E50042175307F9F29150E1F684E05A
:10064000089582E0089583E0089581E00895EF928F
:10065000FF920F931F93CF937C018B010E94F602B0
:10066000C82F882371F08C2FCF911F910F91FF908D
:10067000EF900895F70181917F018093F10001507F
:1006800011090115110579F38091E80085FDF2CF7C
:100690008091E8008E778093E8000E94F60288231C
:1006A00081F3C82FE0CF8091960287FF13C080911D
:1006B000E80082FF06C08091E8008B778093E80015
:1006C00004C0809194028111F2CF08958091940228
:1006D0008823D9F38091E80080FFF8CF8091E8006B
:1006E0008E77ECCF982F9093E900242F762F50E04F
:1006F000891731F07091EC002091ED005091F000DD
:1007000021FD07C09F5F973071F78093E90081E07A
:1007100008953091EB003E7F3093EB003091ED0077
:100720003D7F3093ED003091EB0031603093EB0072
:100730007093EC002093ED005093F0002091EE00B8
:1007400027FDE0CF80E00895CF92DF92EF92FF92F5
:100750000F931F93CF93DF93C8EDD0E088818F7EF6
:100760008883E7EDF0E080818160808384E082BF50
:1007700081E080936F0288818E7F888302EE10E093
:10078000F80110821092DA0081EEC82ED12CF60109
:10079000108288818F7788838881806888838881A8
:1007A0008F7D888319BC109294021092950210924A
:1007B00093021092920290EEE92EF12CF7018081C3
:1007C0008B7F808388818160888342E060E080E065
:1007D0000E947203F60180818E7F8083F801808100
:1007E00081608083808188608083F70180818E7F33
:1007F0008083888180618883DF91CF911F910F91E1
:10080000FF90EF90DF90CF900895FC0180919C02C3
:1008100090919D0286179707A0F06115710529F444
:100820008091E8008E778093E80090E06115710573
:1008300051F4911108C08091E80082FF35C080E03A
:100840000895BC01F2CF809194028823C9F18530CC
:10085000C9F18091E80083FD31C08091E80082FDFC
:10086000EACF8091E80080FFE1CF8091F3002091F2
:10087000F200382F6115710519F02830310558F054
:1008800091E02830310509F090E08091E8008E7702
:100890008093E800CBCF84918093F1003196615032
:1008A00071092F5F3F4FE6CF80919402882341F07A
:1008B000853041F08091E80083FFBDCF81E008954D
:1008C00082E0089583E00895FC0180919C0290915C
:1008D0009D0286179707A0F06115710529F4909184
:1008E000E8009E779093E80090E06115710551F45F
:1008F000911108C08091E80082FF34C080E0089523
:10090000BC01F2CF809194028823C1F18530C1F1FE
:100910008091E80083FD30C08091E80082FDEACF3D
:100920008091E80080FFE1CF8091F3002091F200F8
:10093000382F6115710519F02830310558F091E014
:100940002830310509F090E02091E8002E772093BF
:10095000E800CBCF81918093F100615071092F5F46
:100960003F4FE7CF80919402882341F0853041F0DA
:100970008091E80083FFBECF81E0089582E0089572
:1009800083E00895809171020895209194022430AB
:1009900091F42093E90070E050E040E00E942703CA
:1009A000882321F010926D0210926E028091E8006F
:1009B0008E778093E800089590915402803F59F417
:1009C0008091550287FF0DC01092550291110BC006
:1009D0001092500208C0813F81F480915502181690
:1009E0009CF3992381F08091560290915702892BB4
:1009F00009F064C010924D020895823F49F497FFB8
:100A0000F0CF10925402809155028111ECCFE0CFCB
:100A1000833F19F41916ACF3E4CF20915602893FB5
:100A200029F41216F4F610925602DBCF8A3F19F41D
:100A300027FFD7CFF8CF209157028B3F29F427FF0C
:100A4000D0CF10925702CDCF8C3F19F41216CCF3B1
:100A5000C8CF843F31F4809153028E7F809353023C
:100A6000C0CF853F21F4809153028D7FF7CF863F21
:100A700021F4809153028B7FF1CF873F21F4809145
:100A80005302877FEBCF883F21F4809153028F7E02
:100A9000E5CF8D3F31F4809125028E7F8093250232
:100AA000A0CF8E3F21F4809125028D7FF7CF8F3F1D
:100AB00009F097CF809125028B7FF0CF0895809128
:100AC000250280FD1AC081FD14C082FD14C08091F2
:100AD0004D02882391F08C3370F427E0829FC0018F
:100AE00011246CE370E00E945222862F672B29F0BC
:100AF000089583E0089587E0089581E00895809146
:100B0000250280FD16C081FD16C082FD18C08091AF
:100B10005002882391F08C3390F423E2829FC0012D
:100B200011246CE370E00E945222862F672B49F05B
:100B3000089588E0089581E1089585E0089583E2AD
:100B4000089581E00895803F31F40E947F058195EA
:100B5000809355020895813F19F40E947F05F8CFD4
:100B6000823F31F40E947F0581958093540208955D
:100B7000833F19F40E947F05F8CF893F29F40E9432
:100B80005F058093560208958A3F21F40E945F0515
:100B90008195F7CF8B3F31F40E945F05819580935B
:100BA000570208958C3F19F40E945F05F8CF843FE7
:100BB00031F4809153028160809353020895853F00
:100BC00021F4809153028260F7CF863F21F4809117
:100BD00053028460F1CF873F21F4809153028860F3
:100BE000EBCF883F21F4809153028061E5CF8D3FA8
:100BF00031F48091250281608093250208958E3F13
:100C000021F4809125028260F7CF8F3FB9F7809160
:100C100025028460F1CF9C014FB7F89480912102A6
:100C200090912202A0912302B09124024FBF821B17
:100C3000930B0895209129012223C9F020913A02B3
:100C400027FF15C0E62FE695E695E695EE31D8F438
:100C5000E80FF92FF11D677021E030E001C0220F8D
:100C60006A95EAF720958281282322830895FC0162
:100C7000329608962191621303C0DF0111971C92EE
:100C8000E817F907B9F70895209129012223C1F047
:100C900020913A0227FF14C0E62FE695E695E695E7
:100CA000EE31F8F4E80FF92FF11D677021E030E024
:100CB00001C0220F6A95EAF78281822B8283089510
:100CC000FC0132962FEF30E04191641751F02F3F35
:100CD00019F4411101C0232F3F5F3630A9F72F3F90
:100CE00009F40895820F911D27FD9A95FC016283F6
:100CF0000895CF92DF92EF92FF926C01EE24FF24D1
:100D000020E0C114D104E104F10419F0C701B601D7
:100D100020E1C72ED82EE92EFF24C114D104E1040E
:100D2000F10419F0285FC701B6016B017C0154E0A2
:100D3000F694E794D794C7945A95D1F7C114D10487
:100D4000E104F10419F02C5FC701B6016B017C01CD
:100D500042E0F694E794D794C7944A95D1F7C1142A
:100D6000D104E104F10419F02E5FC701B601969594
:100D7000879577956795672B682B692B09F02F5F0F
:100D8000822FFF90EF90DF90CF90089580911C020A
:100D9000811110921C020895809590911B02982356
:100DA00090931B02089580911B0290911A02892B47
:100DB00090911902892B8093760190911C029923BE
:100DC000A1F0892B8093760180912901882341F13C
:100DD00080913A0287FF24C08EE1E8E7F1E090E0DD
:100DE000815000F591110E94C606E0913C02F091FD
:100DF0003D023097E1F080912901882359F08091DC
:100E00003A0287FF07C0809176018093770185E0E1
:100E1000809376010280F381E02D86E791E00994CA
:100E200086E0DBCF21912223D9F29F5FD9CF0895AD
:100E3000E92FEE0FE90FEE0F8E0F982F9770869522
:100E40008695869525E0829FF0011124EF51FE4F93
:100E500050E040E080E0219130E0092E02C036955C
:100E600027950A94E2F721703327042E01C0220F40
:100E70000A94EAF7822B4F5F5F4F4530510559F7CF
:100E80000895E92FEE0FE90FEE0F8E0F982F977050
:100E900041E001C0440F9A95EAF7869586958695BC
:100EA00095E0899FF0011124EF51FE4F30E020E0E2
:100EB00070E05191DF011197CB01022E02C096958F
:100EC00087950A94E2F78170819585278423852789
:100ED0008C932F5F3F4F2530310559F7089580914E
:100EE000E0019091AF01981301C008958F5F877062
:100EF000FACF882341F0809590911A02892380933C
:100F00001A020C94D3060895882339F090911A029E
:100F1000982B90931A020C94D3060895882321F0FD
:100F20000E94CC060C94D3060895882339F0909142
:100F30001B02982B90931B020C94D30608952091CA
:100F4000A4013091A5012817390771F09093A501EC
:100F50008093A401E0913C02F0913D02309721F092
:100F60000084F185E02D099408952091A20130912B
:100F7000A3012817390771F09093A3018093A20170
:100F8000E0913C02F0913D02309721F00680F7811C
:100F9000E02D09940895E0913C02F0913D023097D4
:100FA00021F00190F081E02D099480E00895CF9325
:100FB000DF93EC0181E0898B80911B029F81892B5B
:100FC00080931B0280911A029885892B80931A02C4
:100FD0000E94D306EA81FB81309739F06C897D89C4
:100FE000CE010696DF91CF910994DF91CF910895BC
:100FF000EF92FF920F931F93CF93DF93EC018A85BB
:10100000811139C0EB80FC8087E5F81A26E12E9D1E
:10101000C0012F9D900D1124DC01AA5FBE4F1496D4
:10102000ED91FC911597309731F054966D917C912C
:10103000845F9E4F099586E18E9D80018F9D100DE6
:1010400011240A5F1E4FF80187810E94CC06F80127
:101050008085982F909580911A02892380931A0297
:101060000E94D306188219861B861E821D8210924A
:10107000A7011092A601DF91CF911F910F91FF90D0
:10108000EF90089590913A0292FF06C0282F2871A0
:101090002830F9F4877F846093FF06C0282F2871D9
:1010A0002831F1F4877E846120913B0220FF06C045
:1010B000382F38713830D9F4877F816021FF06C01E
:1010C000282F28712831D1F4877E816194FD877E95
:1010D0000895282F24712430F9F68B7F8860DCCFA7
:1010E000282F2471243101F78B7E8861DDCF382FC2
:1010F0003171313019F78E7F8860E0CF282F217150
:10110000213121F78E7E8861E1CFCF93DF93972F36
:1011100070E026E0929F600D711D1124FB0134E503
:10112000839FE00DF11D1124EE0FFF1FEA55FE4FC6
:10113000C591D491CE01C238D105B9F1E8F5C133DA
:10114000D10509F499C050F5C932D10509F48DC013
:10115000CA32D10509F497C0C11521E5D20708F0BC
:10116000BFC0C11530E5D30708F016C1C83ED10590
:1011700008F09DC0C03ED10568F5C83AD10508F019
:1011800089C0C53AD10508F0FFC0C130D10511F1C1
:10119000209709F443C02497E8F440C0C533D10533
:1011A00009F45CC0C933D105B9F620913A02237025
:1011B00089F080EE90E00EC0C33ED10591F168F455
:1011C000C03ED105F9F0C23ED10531F620913A0278
:1011D00022FD20C0DF91CF910895C63ED10561F177
:1011E000C73ED10581F1C43ED10509F0B5CF2091AC
:1011F0003B0221FFEFCF80913A0284FD0FC087EEC2
:1012000090E0E8CF20913A0220FD12C130913B02DC
:1012100030FFE0CF83EE90E024FFDCCF90E080E071
:10122000D9CF20913A0222FD06C130913B0230FD18
:10123000C0CF24FFCFCFF2CF20913A0223FFCACFF5
:1012400024FDECCFDCCF20913A0223FDF7C0309192
:101250003B0231FFEECF84EE90E0BCCF20913A020A
:1012600025FFB8CF89E290E0B5CF20913A0225FF63
:10127000B1CF85E390E0AECF20913A0226FFAACF0E
:101280008AE290E0A7CF20913A0226FFA3CF81E324
:1012900090E0A0CFCF3BD10508F6C85AD0E0CC0FE4
:1012A000DD1FC75CDE4F88819981946493CFC1159F
:1012B00020E2D20760F4C11531E0D30708F08ACFED
:1012C000CE019065C03FD10508F084CFA7CFC115EE
:1012D00080E4D80708F4A2CFCE019F70906A7ACF3D
:1012E000C11595E5D90710F5C11524E5D20708F019
:1012F00088C0C11533E5D30708F06FC0C11582E57A
:10130000D80708F465C09E012370332781E090E080
:1013100002C0880F991F2A95E2F7C695C69520E26C
:10132000C29FE00111248C2B9D2B50C0C11599E563
:10133000D907A0F4C11528E5D20708F067C0C11588
:1013400036E5D30708F06ACF8C2F0E94420890E060
:10135000982F882788279F7190623CCFC1158AE516
:10136000D80708F458C0CE0190568115904208F075
:1013700055CF8D2F8F710E94420890E0982F8827BB
:1013800088279F718C2BE8CFC55AD0E0CA5CDE4F0E
:10139000888190E090641ECF9E01E4E03695279509
:1013A000EA95E1F723708C2F86958695837030E25D
:1013B000839FC0011124922BC37021E030E002C052
:1013C000220F331FCA95E2F7822B932B9C6802CF22
:1013D0009C2F8827816F906AFDCE9E012370332752
:1013E00081E090E002C0880F991F2A95E2F7C69528
:1013F000C69530E2C39FE00111248C2B9D2B9A6887
:10140000E9CE9C2F8827846F906AE4CE9C2F882792
:10141000806F906ADFCE8C2F8F700E94420834E07C
:10142000D695C7953A95E1F7CF709C2F9069D2CEAB
:1014300089E390E0CFCE82EE90E0CCCE86EE90E0D5
:10144000C9CEBF92CF92DF92EF92FF920F931F937C
:10145000CF93DF938C01C0906802D0906902E09036
:101460006A02F0906B0280911D0290911E02A09181
:101470001F02B0912002C82AD92AEA2AFB2ACFE10A
:10148000D0E0BC2ED701C6010C2E04C0B695A7959E
:10149000979587950A94D2F780FD0EC0219788F71B
:1014A000B12C8B2DDF91CF911F910F91FF90EF9079
:1014B000DF90CF90BF900895B8018C2F0E948508CF
:1014C000019761F3EECFCF93DF93EC010E94210AE5
:1014D000BE01DF91CF910C9485080E94630A292FE9
:1014E0002F7092959F7092509E3078F4E92FF0E023
:1014F000EF51FC4D0C946622803F19F020F4883E99
:1015000020F481E00895843FE1F380E00895883E6F
:10151000C0F3813FD1F7F5CF822F869586958695CA
:1015200008959C01832F817032FD84608860FB01E7
:10153000099427982F98089526982E98089525980D
:101540002D98089556985E980895279A2F9A089591
:10155000269A2E9A0895259A2D9A0895CF92DF9271
:10156000EF92FF92CF936B017C010E947906C82F06
:101570000E94A20A0E949F0A0E949C0A0E94990A45
:10158000C150C73040F4EC2FF0E0E151FC4D0C9419
:1015900066220E94AB0AC701B601CF91FF90EF907F
:1015A000DF90CF9008950E94AB0A0E94A80AF3CF63
:1015B0000E94AB0A0E94A50AEECF0E94AB0A0E94CD
:1015C000A80AF8CF209828982198299822982A9834
:1015D00023982B9852985A9853985B983E9846981F
:1015E00008958098889A8198899A84988C9A859889
:1015F0008D9A86988E9A87988F9A0895CF93DF93C5
:1016000000D00F92CDB7DEB790919402943019F5C7
:1016100089837B836A8383E08093E9008FEF9091D5
:10162000E800815095FD06C095ED9A95F1F7000010
:101630008111F5CF8091E80085FF0DC050E040E0BA
:1016400063E070E0CE0101960E9427038091E800DC
:101650008E778093E8000F900F900F90DF91CF91DD
:101660000895BC0184E00C94FE0ABC0183E00C9454
:10167000FE0A9C0182E08093E9009FEF8091E800E0
:10168000915085FD06C085ED8A95F1F70000911116
:10169000F5CF8091E80085FF0CC050E040E065E0A8
:1016A00070E0C9010E9427038091E8008E77809343
:1016B000E8000895CF93DF93EC01809129018823FE
:1016C000B1F180913A0287FF32C060E283E08093FB
:1016D000E9008FEF9091E800815095FD06C095EDEF
:1016E0009A95F1F700008111F5CF8091E80085FF10
:1016F0001BC08091290170E050E040E0811104C0DE
:1017000050E040E068E070E0CE010E942703809145
:10171000E8008E778093E80080E2FE01A2E7B2E065
:1017200001900D928A95E1F7DF91CF91089568E0DD
:1017300081E0CDCFEF92FF920F931F93CF93DF9372
:101740000E94A20A0E949F0A0E949C0A0E94990A73
:1017500088E8E82EF12C8FEF90E0F70191838083E9
:101760000AE810E0F80191838083CCE8D0E0998307
:1017700088830E94AB0AFFEF20E782E0F15020400F
:101780008040E1F700C000000E94A80A9FEFE0E758
:10179000F2E09150E040F040E1F700C000000E940C
:1017A000A50A2FEF80E792E0215080409040E1F7BA
:1017B00000C000000E949F0AEFEFF0E722E0E15036
:1017C000F0402040E1F700C000000E949C0A8FEF2B
:1017D00090E7E2E081509040E040E1F700C0000077
:1017E0000E94990A809128028770FFEF8F9FC001A5
:1017F000112495958795959587959927F70191835C
:101800008083F80191838083998388830E94A20A50
:101810000E949F0A0E949C0ADF91CF911F910F9115
:10182000FF90EF900C94990ACF9384E090E00E948F
:101830006C22C82F81E290E00E946C22982F8C2F9E
:10184000CF9108956FEE7EEF90E080E00E949E229F
:1018500060E082E090E00E94802260E083E090E01F
:101860000E94802210921D0210921E0210921F02EE
:101870001092200260E084E090E00E94802260E00C
:1018800081E290E00E94802260E085E090E00E948A
:10189000802260E086E090E00E9480226FEF87E087
:1018A00090E00E94802240E050E0BA0188E090E0A1
:1018B0000E94922260E08DE090E00E94802240E051
:1018C00050E0BA0188E190E00E94922260E087E156
:1018D00090E00E94802240E050E0BA018CE190E06C
:1018E0000E94922260E080E290E00E94802240E02C
:1018F00050E0BA0188E190E00E9492221092280202
:101900001092290210922A0210922B0284E0806128
:1019100080932802409128025091290260912A0266
:1019200070912B028FE090E00E94922240E050E004
:10193000BA0183E190E00C949222CF93C82F8730B4
:1019400070F580911D0190911E01892B89F564E647
:1019500070E080E40E948B2190931E0180931D0112
:10196000892BD1F464E670E082E10E94E721909334
:101970001E0180931D01892B79F481E090E001C064
:10198000880FCA95EAF764E670E080950E94E72127
:1019900090931E0180931D01CF910C943A228A30BE
:1019A000B9F040F4883071F0893079F0209A2898A5
:1019B000CF9108958C3091F070F08D30B9F73E9A48
:1019C0004698F6CF219A2998F3CF229A2A98F0CFF9
:1019D000239A2B98EDCF529A5A98EACF539A5B9854
:1019E000E7CF80E290E090931E0180931D018091EB
:1019F000960181110EC00E94852181E0809396019D
:101A00002FEF83ED90E3215080409040E1F700C03C
:101A1000000064E670E080E40E948B2190931E0138
:101A200080931D01892B09F04EC064E670E080E0D0
:101A30000E94E72190931E0180931D01892B09F0DC
:101A400042C064E670E080E00E94E72190931E01AE
:101A500080931D01892BB9F564E670E08FE30E9445
:101A6000E72190931E0180931D01892B61F50E944F
:101A70003A2264E670E080E40E948B2190931E017C
:101A800080931D01892BF9F464E670E08CE00E94DC
:101A9000E72190931E0180931D01892BA1F464E638
:101AA00070E080E00E94E72190931E0180931D0169
:101AB000892B49F464E670E08FE30E94E72190935C
:101AC0001E0180931D010E943A2280911D010895FC
:101AD000CF93873050F580911D0190911E01C0E099
:101AE000892B71F464E670E081E40E948B2190936D
:101AF0001E0180931D01892B31F0C0E00E943A2223
:101B00008C2FCF91089584E690E00E94162297FFD3
:101B100005C090931E0180931D01EFCFC82FC09583
:101B200010921E0110921D01E9CFCFB18FB18695A1
:101B300086958C73C3708C2BC82FC095E1CF1F92F4
:101B40000F920FB60F9211242F933F934F935F93F1
:101B50006F937F938F939F93AF93BF93EF93FF9375
:101B60008091E10082FF09C08091E20082FF05C000
:101B70008091E1008B7F8093E1008091DA0080FF0B
:101B800024C08091D80080FF20C08091DA008E7F31
:101B90008093DA008091D90080FF9BC080E189BDED
:101BA00082E189BD09B400FEFDCF81E080939402FB
:101BB00080916F02811109C00E94D7020E94A40384
:101BC0008091E20084608093E2008091E10080FFD8
:101BD00017C08091E20080FF13C08091E2008E7FE9
:101BE0008093E2008091E20080618093E200809126
:101BF000D80080628093D80019BC85E0809394025D
:101C00008091E10084FF29C08091E20084FF25C01B
:101C100080E189BD82E189BD89B5982F917080FFEF
:101C2000FBCF8091D8008F7D8093D8008091E10018
:101C30008F7E8093E1008091E2008F7E8093E200AE
:101C40008091E20081608093E20080919502882378
:101C500009F445C084E0809394028091E10083FF01
:101C600027C08091E20083FF23C08091E100877F3D
:101C70008093E10082E0809394021092950280911B
:101C8000E1008E7F8093E1008091E2008E7F80935F
:101C9000E2008091E20080618093E20042E060E037
:101CA00080E00E9472038091F00088608093F000D1
:101CB000FF91EF91BF91AF919F918F917F916F9124
:101CC0005F914F913F912F910F900FBE0F901F90FA
:101CD000189519BC1092940210926F0276CF8091E1
:101CE000E30087FD93E090939402B7CF78941F921E
:101CF0001FB61F9211248F939F93AF93BF93809130
:101D0000210290912202A0912302B0912402019617
:101D1000A11DB11D8093210290932202A093230262
:101D2000B0932402BF91AF919F918F911F901FBEDE
:101D30001F9018952FB7F89480912102909122025C
:101D4000A0912302B09124022FBF08950E949A0E01
:101D50009C019091540280915502982B21F0309370
:101D60005202209351029091560280915702982B73
:101D700021F030934F0220934E02E0913C02F0910B
:101D80003D02309731F00480F581E02D83E592E04B
:101D90000994089510921A02109219020E94D30613
:101DA00085E0E3E5F2E0DF011D928A95E9F7109204
:101DB000500210924D02109225020E94A60E90E051
:101DC00080E00E94B50790E080E00C949F07CF92DE
:101DD000DF92EF92FF92CF93DF9300D000D0CDB788
:101DE000DEB70E94AE0A6B017C0180916C028823F1
:101DF00021F080916D02811115C0C0926802D092CD
:101E00006902E0926A02F0926B020E94CA0E0F9081
:101E10000F900F900F90DF91CF91FF90EF90DF9098
:101E2000CF900895198282E08A83C701B6010E948B
:101E300079068B838EEF8C8364E0CE0101960E943D
:101E4000C504DBCF0F931F9341E050E060E070E0EA
:101E500004C0440F551F661F771F8A95D2F7CB0128
:101E6000BA016095709580959095009168021091E7
:101E7000690220916A0230916B02602371238223F0
:101E800093231F910F910C94E70E90911802809567
:101E9000892380931802282F277071F4282F082E89
:101EA000000C330B9217130639F0859585958595AF
:101EB0000E94220F1092180208950F931F9341E081
:101EC00050E060E070E004C0440F551F661F771FAC
:101ED0008A95D2F78091680290916902A0916A0276
:101EE000B0916B028A019B01082B192B2A2B3B2BEB
:101EF000C901B8011F910F910C94E70E60931D0268
:101F000070931E0280931F02909320020C94CA0EBD
:101F100010921B0280912901E8E7F1E0882359F033
:101F200080913A0287FF07C08EE1DF011D928A95FA
:101F3000E9F70C94CA0E86E0F8CF1F93CF93DF9396
:101F4000CDB7DEB7AA970FB6F894DEBF0FBECDBFF0
:101F500086E992E02091F100FC012193CF01F2E0AB
:101F60008E399F07B9F780919702893009F444C0F0
:101F700018F5823009F4B9C0833009F46EC081309D
:101F800031F580919602813A11F58091E800877FC2
:101F90008093E80080919A0290919B02892B41F5F1
:101FA00060E282E792E070E00E9464048091E800C1
:101FB0008B778093E8000BC08B3009F46BC008F47A
:101FC00083C0823409F4A2C0853409F4BCC0809176
:101FD000E80083FF50C280919602909197029A3058
:101FE00008F049C2E92FF0E0EA50FC4D0C9466225B
:101FF00060E090E080E0D7CF80919602813239F79F
:1020000080919A0290919B02009711F00297F9F645
:102010008091E800877F8093E8008091E80082FF4C
:1020200017C09091F3008091F200029729F48091FB
:10203000F1008B7F813021F48091F1008093710257
:102040008091E8008B778093E8000E945303BFCF14
:10205000809194028111E1CFBACF80919602813AAA
:1020600009F0B5CF80919A0290919B02892B09F0DB
:10207000AECF8091E800877F8093E8008091E800F0
:1020800080FFFCCF809129018093F1008091E800CE
:102090008E77D9CF80919602813209F098CF8091C6
:1020A0009A0290919B02892B09F091CF8091E800D0
:1020B000877F8093E8000E94530380919802809369
:1020C00029010E94880F83CF80919602813209F006
:1020D0007ECF8091E800877F8093E8000E945303C1
:1020E000809199028093700272CF80919602813A1A
:1020F00009F06DCF8091E800877F8093E8008091A0
:10210000E80080FFFCCF80917002BECF80919602E4
:10211000803C09F05CCF80919A0290919B020297DB
:1021200039F58091980290919902892B09F5809157
:10213000E800877F8093E8006BE170E080E594E041
:102140000E94050482CF80919602803C09F03FCF27
:1021500080919A0290919B02079751F48091E80038
:10216000877F8093E80062EB70E08EE993E0E8CF30
:102170008091EB0080628093EB0029CF803899F04A
:10218000823809F078C180919A028F70873008F008
:1021900072C18093E9008091EB0085FB882780F96C
:1021A0001092E90006C080919202909193029111E1
:1021B00082609091E800977F9093E8008093F1000F
:1021C0001092F1008091E8008E7751C1882309F4C4
:1021D0003FC1823009F04FC180919802811142C104
:1021E00080919A028F702FEF280F263008F043C19C
:1021F0008093E9002091EB0020FF34C1933031F44B
:102200008091EB0080628093EB002CC19091EB00F9
:1022100090619093EB0021E030E001C0220F8A959D
:10222000EAF72093EA001092EA008091EB008860C0
:10223000EACF811120C1109198021F778091E300AD
:102240008078812B8093E3008091E800877F8093E2
:10225000E8000E9453038091E80080FFFCCF80914A
:10226000E30080688093E30082E0111183E08093B3
:10227000940201C18058823008F0FDC0809198021C
:10228000909199028C3D23E09207A1F583E08A8327
:102290008AE289834FB7F894DE01139620E03EE08E
:1022A00051E2E32FF0E050935700E49120FF03C088
:1022B000E295EF703F5FEF708E2F90E0EA30C0F054
:1022C000C7968D939D932F5F243159F74FBF80910F
:1022D000E800877F8093E8006AE270E0CE01019613
:1022E0000E9464048091E8008B778093E800C3C06B
:1022F000C096E7CF20919A0230919B02492F552733
:102300004330510551F1A0F44130510509F459C051
:102310006BE670E08CE694E04230510509F0ABC00A
:102320002091E800277F2093E8000E940504DACF7F
:102330004132510539F14232510591F14F30510589
:1023400009F099C0E9E3F5E0649170E087E395E076
:102350006115710509F48FC0E3CF9927813091058C
:1023600071F0009731F0029709F085C0E9EEF4E0D2
:1023700002C0E3E3F5E0649170E0CF01E9CFE1E072
:10238000F5E0F9CF2330310508F075C0220F331F77
:10239000F901E059FE4F8081918169E070E0C0CF82
:1023A0002330310508F067C0F901EE0FFF1FE65931
:1023B000FE4F8081918129593E4FF901608170E083
:1023C000C7CF62E170E087ED94E0AACF803809F0D2
:1023D00052C08091E800877F8093E8008091950249
:1023E0008093F100EFCE811146C010919802123017
:1023F00008F041C08091E800877F8093E800109347
:1024000095020E945303112311F084E005C08091CE
:10241000E30087FDFACF81E08093940242E061EC13
:1024200081E00E94720342E061EC82E00E9472034C
:1024300042E261EC83E00E94720342E361EC84E0DB
:102440000E94720342E360EC85E00E94720313C0B5
:1024500080919802813079F481E0933009F080E036
:10246000809393021092E9008091E800877F809327
:10247000E8000E9453038091E80083FF0AC0809126
:10248000E800877F8093E8008091EB008062809372
:10249000EB00AA960FB6F894DEBF0FBECDBFDF915A
:1024A000CF911F9108951F920F920FB60F92112492
:1024B0002F933F934F935F936F937F938F939F934C
:1024C000AF93BF93CF93DF93EF93FF93D091E90046
:1024D000DF708091EC00C82FC17080FDC0E81092C1
:1024E000E9008091F000877F8093F00078940E944B
:1024F0009D0F1092E9008091F00088608093F000B9
:10250000CD2BCF70C093E900FF91EF91DF91CF9178
:10251000BF91AF919F918F917F916F915F914F91FB
:102520003F912F910F900FBE0F901F901895882309
:1025300079F19CEF980F913A38F4682F86E791E093
:102540000E941A060C94D30690E2980F983050F42B
:10255000877091E001C0990F8A95EAF7892F0E9450
:10256000CC06F0CF9BE5980F933020F490E080E00C
:102570000C94B50798E5980F973120F490E080E02F
:102580000C949F07803F20F00E94DC040C94A60E60
:102590000895CF93DF93EC010E94971269E777E0EB
:1025A000CE01DF91CF910C94910A8FE39CE90197C2
:1025B000F1F700C0000080919801833059F0853018
:1025C00011F0813021F480E199E00E94C91210924B
:1025D0009801089589E09CE0F8CFCF93C82F882315
:1025E00009F46EC08CEF8C0F813AB8F58091290107
:1025F000882311F180913A0287FF1EC0EC2FE695E7
:10260000E695E695F0E0EA58FE4F828190E04C2F87
:10261000477021E030E002C0220F331F4A95E2F7F5
:1026200082239323892B89F06C2F86E791E00E9407
:102630001A060E94D30609C0E8E7F1E08191C817A5
:1026400099F381E0EE37F807C9F76C2F86E791E040
:102650000E944406CF910C94D30680E28C0F883000
:1026600068F4C77021E030E001C0220FCA95EAF794
:1026700080911B02822B80931B02ECCFEBE5EC0FC9
:10268000E33040F4F0E0EA5CFE4F808190E0CF91CF
:102690000C94B507E8E5EC0FE73150F4F0E0EE0FED
:1026A000FF1FE75CFE4F80819181CF910C949F07C3
:1026B000C03F30F08C2F0E94A305CF910C94A60E42
:1026C000CF9108950F931F93CF93DF93C62FD42FED
:1026D000022FFC0182818823A1F06093A0020E9456
:1026E0009A0E90939F0280939E02C77081E001C072
:1026F000880FCA95EAF7DF91CF911F910F910C9443
:1027000095078091A002681338C080919E02909135
:102710009F020E940B06883C910578F510E21D0F80
:10272000CD17B9F080E28C0F883040F4C77081E09B
:1027300001C0880FCA95EAF70E948E07183048F446
:1027400081E09D2F977001C0880F9A95EAF70E944B
:102750009507802F0E94ED12802F0E94971218304B
:1027600098F4D77081E001C0880FDA95EAF7DF911D
:10277000CF911F910F910C948E07C77081E001C01B
:10278000880FCA95EAF7F3CFDF91CF911F910F9190
:102790000895CF93C82F64E877E00E94910A8C2FA8
:1027A000CF910C94ED1280E199E00E94C91380E171
:1027B00099E00C94C912CF93DF93EC0188818330A8
:1027C00031F40E94D3130E94D3130E94D313888143
:1027D000843020F0DF91CF910C94D313DF91CF910F
:1027E0000895FC018081813071F48185882331F066
:1027F00081E08093980180E199E012C0828588236E
:10280000B9F382E010C08230B9F4818581110EC025
:102810008285811107C083E08093980189E09CE064
:102820000C94C91384E080939801089585E0809307
:1028300098010E94D313DFCF86E0F5CF4F925F92CD
:102840006F927F928F929F92AF92BF92CF92DF92C0
:10285000EF92FF920F931F93CF93DF9300D000D09E
:102860000F92CDB7DEB77C01DC0113968D919C9160
:102870001497892B41F01C911196DC90812F8D21AA
:102880008F3F09F05DC50F900F900F900F900F9044
:10289000DF91CF911F910F91FF90EF90DF90CF903C
:1028A000BF90AF909F908F907F906F905F904F9070
:1028B00008950E94210A082F682F89819A810E9419
:1028C0004107E12FF0E0B6E0DB9EE00DF11D1124A1
:1028D00024E5029FE00DF11D1124EE0FFF1FEA55C4
:1028E000FE4F05911491D70112968C918111E2C08F
:1028F00080916C0281111EC10A32BDE51B07E9F50A
:10290000F70182818823C9F18091280291E0980F14
:102910009770887F953008F4892B809328028091E6
:1029200028028770FFEF8F9FC0011124959587952E
:102930009595879599279093890080938800909327
:102940008B0080938A0090938D0080938C0040913F
:1029500028025091290260912A0270912B028FE087
:1029600090E00E94922260916802709169028091C9
:102970006A0290916B020E94AE0AC80197558F3F80
:10298000910511F008F000C120911C01022E000CED
:10299000330B2817390714F480931C01D7011296C2
:1029A0002C91129736E1389F5001399FB00C1124B9
:1029B000F501EA5FFE4F6F01208B12969C91868194
:1029C000992309F4D4C0128701878F5F86830E9400
:1029D0009A0ED6011E969C938E931D9780911C0291
:1029E00017968C93179780911A0290911B02892B4E
:1029F00018968C931897ED91FC911197309739F0B8
:102A000054966D917C91C501845F9E4F09951093FA
:102A1000A7010093A601D70112968C91882309F48F
:102A2000A1C41092A0020230BCE51B0708F4C6C185
:102A30000631ECE51E0738F098012B5F3C45273046
:102A4000310508F0BBC10E94140C90933B028093A7
:102A50003A020F30FCE51F0709F491C108F012C1DA
:102A600008303CE5130709F474C108F0E5C00430F0
:102A70009CE5190709F461C108F0CDC00230BCE53E
:102A80001B0709F456C180913A02826003301C454D
:102A900009F4E4C060913A0210913B0284E090E0B6
:102AA0000E948022612F81E290E00E9480220E9499
:102AB000880F90C080911C018F3F09F419CF66E008
:102AC000C62E61E0D62EB12CA12C9924939480912E
:102AD0001C01082E000C990B8A159B050CF408CFDD
:102AE000F60186818823F9F0818592858017910708
:102AF00039F48091A6019091A7018017910799F070
:102B0000D6011F969C921F971C961C930E931B97A1
:102B100051968C91811103C0C6010E94D707C6014E
:102B200006960E94F807BFEFAB1ABB0AE6E1CE0E8D
:102B3000D11CCDCF80916D02882309F4DDCE19829E
:102B4000D70112968C91811110C082E18A83D7013E
:102B50008C918B8311968C918C838EEF8D8365E0A5
:102B6000CE0101960E94C504C7CE81E1EFCF882334
:102B700009F451CF8189882309F44DCFC501845FC1
:102B80009E4F0E94F80747CF043FFCE51F07A1F1C5
:102B900088F4093D3CE5130759F10A3D8CE5180717
:102BA000B9F1083D9CE5190709F035CF26E241EE61
:102BB00061EE0DC0063FACE51A0731F108F127E2DE
:102BC00045EE66EE073FECE51E0709F024CFC7018E
:102BD0000E94621380911802877009F454CEF701A5
:102BE0008281882309F44FCE82E00E94450F4BCEAC
:102BF00027E245EE65EEEBCF26E241EE60EEE7CF51
:102C000027E245EE64EEE3CF26E241EE62EEDFCF4F
:102C100028E241E0EFCF80913A0280610630FCE586
:102C20001F07E1F080913A02886007301C45B0F040
:102C300080913A02806212C00B303CE5130709F420
:102C400096C078F409309CE5190709F486C0809194
:102C50003A028C600A301C4509F01CCF80933A027E
:102C600019CF80913A028B7F0D30BCE51B07B1F381
:102C700080913A028D7F0E301C4580F380913A029C
:102C8000877FECCF0B3FFCE51F0709F45AC048F5DE
:102C900002313CE5130709F47AC060F400319CE589
:102CA000190709F470C080913A028F7B01311C45ED
:102CB000A9F2F0CE0431BCE51B0709F476C008F494
:102CC0006CC005311C4509F0E5CE80913A0282FBCB
:102CD000992790F921E0922790FB82F990FB83F9E4
:102CE000BDCF0E3F2CE5120709F445C070F40C3F30
:102CF0008CE5180751F180913B028E7F0D3F1C45FA
:102D000009F0C8CE80933B02C5CE0115ADE51A0788
:102D100009F447C040F101301D4509F0BBCE809158
:102D20003B02982F909591708E7F892B90FB81F9B3
:102D3000E9CF80913A02816091CF80913A0284601C
:102D40008DCF80913B028160DDCF80913B0282601C
:102D5000D9CF80913A02806481CF0E94880F809100
:102D60003A0280687BCF80913B028360CBCF809119
:102D70003A028E7F73CF80913B028D7FC3CF8091CB
:102D80003A028F7E6BCF80913A028F7D67CF0E948F
:102D9000880F80913A028F7761CF80913A02837FCA
:102DA0005DCF80913B028C7FADCF0E94880F9091C8
:102DB0003A02892F97FB87F9805850CF0631FCE5FE
:102DC0001F0709F0DDC280911B028A7A91E009F4A5
:102DD00090E09093A80169E2811165E386E791E0B4
:102DE0000E9444060E94D306F5CE0E94220CF2CE29
:102DF00080916E0291E0892780936E02EBCED7011D
:102E00000D911C91882309F43DC0C8010E94210A3C
:102E1000D82E682FC8010E944107B8018D2D0E944D
:102E200085088C01882EF701A580A2944FE0A4228A
:102E3000D280D11010921A0280911802877099F0F6
:102E4000DD2089F0812F807F803421F080E2800FA7
:102E5000883048F082E00E94450F80911802877008
:102E6000CC24C3948111C12CB12EB2943FE0B32283
:102E7000FBE0FB1508F43DC0EB2DF0E0E050FC4D0D
:102E80000C946622C8010E941807D82EC6CF212FA5
:102E90002F70A22E107F19F0A29420EFA222DD2025
:102EA000C9F0AA2069F080E2800F883010F081100C
:102EB0000BC080911B02A82AA0921B020E94D3067D
:102EC000802F0E94ED1215C080911A02A82AA092AC
:102ED0001A02F4CF802F0E949712AA2051F0005EB0
:102EE000083010F0811044C08A2D0E94CC060E9448
:102EF000D306EB2DE850FF0B349710F40E94CB075C
:102F0000CC20B1F08091180280FD12C0D70112963A
:102F10001C928595859585950E945D0FC7010E943D
:102F20001E14809118028595859585950E94220F23
:102F300085E0F701DE01119601900D928A95E1F787
:102F400089819A810E9418079A81E981F0E0B6E0B0
:102F50009B9FE00DF11D112424E5829FE00DF11DE2
:102F60001124EE0FFF1FEA55FE4F859194918BCCF3
:102F7000A09480911A02A822A0921A02B8CF312FF1
:102F80003F70932E107F103219F0929490EF992297
:102F9000882041F081E0881631F1DD2079F1AA2006
:102FA00041F18ECFDD2091F090911C02892F89296B
:102FB000A11003C00E9495079CCFA1E0AA12FACFEE
:102FC000981709F496CF80931C0293CFA11006C0E6
:102FD0000E94C606892D0E948E078BCFB1E0AB16EA
:102FE00009F487CFF5CFDD2031F0E1E0EA1508F4F0
:102FF00080CF892DDFCFA1107CCFECCFAA2051F359
:10300000F9E38F1209C02FEF37EE83E021503040F3
:103010008040E1F700C00000802F0E94971269CF26
:10302000812F86958695837061F0813009F061CF9C
:10303000C8019370D11002C090E080E00E949F0709
:1030400058CFC8019370D11002C090E080E00E9478
:10305000B5074FCF802FDD2029F00E94A3050E94E5
:10306000A60E47CF0E94DC04FACF812F837009F0AF
:1030700066C0D1103ECF802F829586958770880FCD
:10308000880F602F6F70462E512C712C612C082EEA
:1030900004C0440C551C661C771C0A94D2F740E00F
:1030A00050E0BA0104FF0FC04FE050E060E070E074
:1030B00004C0440F551F661F771F8A95D2F74095AD
:1030C000509560957095812F869586958370823096
:1030D00019F1D8F400911D0210911E0220911F02D7
:1030E00030912002813069F04429552966297729D9
:1030F000CB01BA0160237123822393230E947E0FA8
:10310000F8CE402A512A622A732ACB01BA016429D7
:10311000752986299729F2CF4429552966297729C7
:1031200000911D0210911E0220911F023091200279
:10313000CB01BA016027712782279327DFCF8695BD
:10314000DD2011F0812F8170882309F4D2CE802FE9
:10315000829586958770880F880F602F6F70462E36
:10316000512C712C612C082E04C0440C551C661C7B
:10317000771C0A94D2F740E050E0BA0104FF0FC078
:103180004FE050E060E070E004C0440F551F661F40
:10319000771F8A95D2F74095509560957095812F4D
:1031A000869586958370823019F1D8F40091680273
:1031B0001091690220916A0230916B02813069F0AE
:1031C0004429552966297729CB01BA016023712347
:1031D000822393230E94E70E8CCE402A512A622A32
:1031E000732ACB01BA016429752986299729F2CF60
:1031F00044295529662977290091680210916902AE
:1032000020916A0230916B02CB01BA0160277127CD
:1032100082279327DFCF1F70DD2029F0812F0E94A6
:103220005D0F802FC7CE802F0E948E07812F0E94B6
:10323000220F5FCE802F92EF891609F44EC09815A9
:1032400078F0A0EF8A1619F1B1EF8B1609F43DC0A2
:10325000DD2009F465C0A11033CE812F8F713AC0F3
:10326000E3EF8E1609F43EC0F4EF8F12F1CFDD20AC
:1032700009F44BC01F71812F0E945D0F38E0139F2E
:10328000C0011124836080931802812F23C0DD20A8
:10329000B9F0A1102ECE1F7161E070E080E090E0E7
:1032A00004C0660F771F881F991F1A95D2F70091E7
:1032B00068021091690220916A0230916B02A6CFD8
:1032C00021E02A1508F415CEE6CF812F8F71DD207D
:1032D00009F4ADCF0E945D0F0CCE812F8F71DD20E0
:1032E000C9F3A5CF60E070E0CB01DD2009F472CF17
:1032F0001F7161E070E080E090E004C0660F771F0E
:10330000881F991F1A95D2F765CF81E00E94450F5B
:1033100081E08A1508F0EDCD82E00E94450FE9CDED
:10332000AA2059F0893309F077CE9FEFA7EEB3E0DA
:103330009150A040B040E1F76DCE812F8F7177CFD3
:1033400085E0F701DE01119601900D928A95E1F773
:10335000F701228189819A812111ABCA0E94180745
:10336000082FAFCA06311C4509F049CD8091A8014C
:1033700069E2811165E386E791E00E941A0632CD89
:103380000F3D2CE5120709F430CD09303DE5130758
:1033900009F42ECD01151C4509F031CD0E94880F8E
:1033A0002FEF34E38CE0215030408040E1F700C043
:1033B0000000F89481E08093E00080E28093D800E0
:1033C0001092C900AFE1BEE41197F1F700C0000010
:1033D0001DBA109268001CBC10BE1FBA10927A0071
:1033E00010926E0010926F00109271001092720095
:1033F0001092C9001092BC0014B817B81AB81DB8C2
:1034000010BA1092BC0015B818B81BB81EB811BA83
:103410000C94003FDFCB1F93CF93DF938091AE01DD
:10342000807FA9F48091AB01882389F08091E0012D
:10343000D091AF016091A9017091AA01A091AC0156
:10344000B091AD01C62FC72316E0D81304C0DF9199
:10345000CF911F91089590E0109711F0CF3F19F48C
:1034600001968770F2CF189F9001199F300D11249B
:10347000F901E055FE4F41814713F2CF40814613D9
:10348000EFCF42814111ECCF438154814A1B5B0B4A
:10349000483C510528F78091AE018F708061809380
:1034A000AE01F901EB54FE4F80818F708061808303
:1034B00089EA91E00E941E14DF91CF911F910C9434
:1034C0006F07AF92BF92CF92DF92EF92FF920F936E
:1034D0001F93CF93DF93CDB7DEB761970FB6F89404
:1034E000DEBF0FBECDBF8C0185E0F801DE011D9669
:1034F00001900D928A95E1F7F80180819181E28037
:1035000029EAA22E21E0B22E6091AC017091AD01AA
:103510006115710509F43EC13091A9014091AA01DC
:10352000232F24232F3F09F435C1C380D480F0908A
:10353000AB01F601E61BF70BFF2009F4FBC020915D
:10354000AE01522F507FE83CF10508F0BBC051118D
:1035500078C0FE2C491321C038131FC0E1101DC0D4
:103560002F7020612093AE01C5010E941E1480912E
:10357000AE01F80185838F2D61960FB6F894DEBFFA
:103580000FBECDBFDF91CF911F910F91FF90EF90B4
:10359000DF90CF90BF90AF900895CD2829F0282FCD
:1035A00029232F3F09F014C120E0F22FF170DF2E04
:1035B00020FF3DC02091E0014091AF0156E024136F
:1035C00015C08D879E878D859E850E94630A292F51
:1035D00022952F702230F8F0243020F59F70F9F0FA
:1035E000F8019581907FD9F4D12C1FC030E0529F13
:1035F000F001539FF00D1124E055FE4F61819613A9
:1036000006C06081861303C06281E61210C02F5F7E
:103610003F4F2770D4CF9F7011F0882329F3805E2D
:10362000883010F3C8010E941E14FD2CA4CFEE2098
:1036300009F4A1CF8091AE0181608093AE01F12C9D
:103640009ACF491312C0381310C0E1100EC0F80110
:103650002583C8010E941E1486E0F801A9EAB1E0A2
:1036600001900D928A95E1F786CF8D879E878D8593
:103670009E850E946D0A882309F1EE20F9F0809161
:10368000AE01803270F02091A9013091AA013887F3
:103690002F831986DB86CA868C87CE0107960E9407
:1036A0001E1486E0F801A9EAB1E001900D928A9516
:1036B000E1F70E940B1AFF24F3945DCFC8010E942A
:1036C0001E14F9CF51110AC089EA91E00E941E141C
:1036D00086E0F50111928A95E9F7B1CF49130FC041
:1036E00038130DC0E1100BC0F8012583C8010E94FA
:1036F0001E1486E0F50111928A95E9F73CCF8D877B
:103700009E878D859E850E946D0A8823B9F2EE20E2
:10371000A9F28091AE01803220F22091A90130916E
:10372000AA013A8329831B82DD82CC828E83CE015B
:103730000196B5CFE83CF105E0F6FE2CEE2009F449
:10374000BDCF491316C0381314C08091AE0180FD5F
:1037500083CF982F907F09F47FCFF8018583903F26
:1037600009F477CF982F907F905F8F70892B858396
:1037700070CF8D879E878D859E850E946D0A8111F1
:1037800090CF8091AE0181608093AE01C8010E940C
:103790001E14F1CEEE2009F491CF8D879E878D8582
:1037A0009E850E946D0AF82E882309F487CF86E053
:1037B000F801A9EAB1E001900D928A95E1F78091B4
:1037C000A9019091AA010E94630A0E940B1AD3CE0C
:1037D00021E02E25EACE1F93CF93DF93CDB7DEB73E
:1037E00067970FB6F894DEBF0FBECDBF4B8B5C8BD7
:1037F0006D8B7E8B8F8B1A8A198A85E0FE017396FA
:10380000DE011D9601900D928A95E1F786E0FE019A
:103810003D96DE01179601900D928A95E1F7CE0153
:1038200007960E94611A811112C086E0FE01379648
:10383000DE01119601900D928A95E1F78A859B85AC
:10384000892B29F08F81988589238F3FB1F516E068
:103850008091E0019091AF0189131DC067960FB66A
:10386000F894DEBF0FBECDBFDF91CF911F910895B9
:1038700096E0929FD001939FB00D1124A055BE4FAA
:10388000FE01319601900D929A95E1F78093AF0178
:103890000E946F07DCCF819FC001112480559E4F8D
:1038A0000E94611A8823D1F28091E00190E0019694
:1038B000877099278093E001CBCF2091AF0130E052
:1038C000C9010196877099274091E00148171906B0
:1038D00079F60E94880F1092AF011092E00186E005
:1038E000E9EAF1E0DF011D928A95E9F7B0CF8F9206
:1038F0009F92BF92CF92DF92EF92FF920F931F930E
:10390000CF93DF9380911D0190911E01892B91F03F
:10391000809199018F5F8093990181110BC00E9462
:10392000F10C90E090931E0180931D01892B11F4FE
:103930000E949A0BECE28E2EE2E09E2E740110E0C3
:1039400000E077E0C72EC00E802F0E949D0C8C2DCA
:103950000E949D0C802F0E94680DE70199917E01C5
:10396000D12C891729F0FE0131978083DD24D3946F
:103970008C2D0E94680DF7019681891709F47AC091
:10398000868381E08D29182B0E94E20A0F5F0730A1
:10399000C1F60E949A0E60919B0170919C019093D8
:1039A0009C0180939B0120919A0130E0261B370BEC
:1039B000820F931F6BEF70E00E943E22E82E392F9A
:1039C000082F80939A01F0909E01FF2009F4E4C033
:1039D00010929E01E0912602F0912702AF01425F12
:1039E0005F4F20E06BEFB62E6BEF70E0A191AB3F25
:1039F00099F0CA2ED12C8E2D932F0A17E8F18C192D
:103A00009D09092E000CAA0BBB0B4E97A105B10511
:103A1000C8F1DF011197BC924E175F0739F7209369
:103A20009E01111102C02111B9C010929D01A091F7
:103A30002602B091270290919E01EFE3F2E080E030
:103A40003191E40129914E01321751F03C913B3FF5
:103A5000D9F40C93AF0141505109EA01288391E058
:103A60001196D2E0ED34FD0759F790939E018093B3
:103A70009D0198C080E086CFDB01AC19BD098A0F9B
:103A80009B1FBFCF2F2DC8CF81E0EACFF29EF00160
:103A9000F39EF00D1124EA5FFE4FC288D388C11453
:103AA000D10419F498ECC92ED12CF29EE001F39EBA
:103AB000D00D1124CA5FDE4F8E818823B9F08D8529
:103AC0009E850E940B06C816D90680F40F9D6001E2
:103AD00011248989811105C0C6018A5F9E4F0E9409
:103AE000D707C601845F9E4F0E94F8070F5F202F03
:103AF00030E080911C01082E000C990B821793076F
:103B00002CF655C000E086E1F82EF1CF009789F43D
:103B10000E949F0A0E949C0A0E94990AC0919F01DC
:103B2000CC23B9F10E949C0A81E0C827C0939F0171
:103B300003C09170892B91F38091A0019091A10114
:103B40008130984780F010926E0260916802709107
:103B5000690280916A0290916B020E94AE0A1092F3
:103B6000A1011092A0018091A0019091A101019664
:103B70009093A1018093A001812FDF91CF911F919C
:103B80000F91FF90EF90DF90CF90BF909F908F901C
:103B900008950E94A80AC8CF111147CF80919D01B6
:103BA000811143CF80911C018F3F09F0ABCF8091F1
:103BB000A0019091A10120916E022111A7CF892B24
:103BC000D9F21092A1011092A00160916802709147
:103BD000690280916A0290916B020E94AE0ACCCF7A
:103BE000CDB7DEB7C955D1090FB6F894DEBF0FBE09
:103BF000CDBF84B7877F84BF0FB6F894A895809116
:103C00006000886180936000109260000FBE80E8C1
:103C100090E00FB6F89480936100909361000FBE1E
:103C200085B7806885BF85B7806885BF0E94D70249
:103C30000E94A4038091E20084608093E200789463
:103C4000809194028823A1F01091E9001F70909157
:103C5000EC00892F817090FD80E8182B1092E9000C
:103C60008091E80083FD0E949D0F1F701093E90072
:103C700082E084BD93E095BD9AEF97BD80936E007E
:103C80000E94F10C90E090931E0180931D010E9410
:103C9000E20A0E94F10AECE2F2E06FE3662E62E0D3
:103CA000762E8AE392E0D30111921D928E179F0720
:103CB000D9F78EE090E00E94B42280932602909380
:103CC0002702FC010E962BEF21938E179F07E1F739
:103CD00090E080E00E947A228F3E9E4F11F00E9479
:103CE000220C89EA8093800089E0809381002498E7
:103CF0002C983F988AB18F7C8AB96E98479A8BB17D
:103D000080638BB9769A8FE090E00E947422609372
:103D100028027093290280932A0290932B026770E5
:103D20004FEF649FB0011124759567957595679560
:103D30007727709389006093880070938B0060935D
:103D40008A0070938D0060938C000E949A0B90E023
:103D500080E00E947A228F3E9E4F11F00E94220C3A
:103D600082E090E00E946C22809359020E94140C21
:103D700090933B0280933A0283E090E00E946C2291
:103D8000682F70E090E080E00E947E0F60916802F2
:103D90007091690280916A0290916B020E94AE0A52
:103DA0008FE191E090933D0280933C0228E1C22E86
:103DB000D12C3DE4A32E32E0B32E41E4842E912C8D
:103DC0008C0E9D1EF2E08F0E911C80919402853026
:103DD00081F480E4F82E9EE0E92EE60C00E112E189
:103DE00080919402853009F452C10E94880F0E948C
:103DF000CB070E94771CEAE5F2E0AFE3B2E010E007
:103E000000E0302F8D912191281709F48AC190E0AC
:103E1000FF24F3942827422F4F2109F47DC1619696
:103E20009FAF619762963FAF62978F2191E009F44F
:103E300090E063969FAF63970E949A0E8160782FFF
:103E400065969FAF8EAF659761964FAD619762960D
:103E50005FAD629763966FAD639765968FAD65971B
:103E60000E94EB1BF801E65AFD4F8081F826F08294
:103E700085E0E3E5F2E0DE01119601900D928A956E
:103E8000E1F7F0905402E090550210915602009133
:103E9000570210925402109255021092560210923C
:103EA00057028F2D8E2909F448C0809151029091BC
:103EB00052020E940B069C0190915002992309F432
:103EC000F9C125313105C8F19F3F19F09F5F9093EB
:103ED0005002FF2059F00E947F059FEF1F140CF441
:103EE00091E0899F802D112480935402EE2059F097
:103EF0000E947F059FEF1E140CF491E0899F802D96
:103F0000112480935502309154023323B1F0209153
:103F10005502222391F045EB3403C001112499236B
:103F200009F426C19093540245EB24039001112417
:103F3000332309F421C130935502812F802B09F4DA
:103F400048C080914E0290914F020E940B069C0146
:103F500090914D02992309F4A8C125313105C8F18A
:103F60009F3F19F09F5F90934D02112359F00E94DB
:103F70005F059FEF11160CF491E0899F802D1124AD
:103F800080935602002359F00E945F059FEF1016A0
:103F90000CF491E0899F802D112480935702309179
:103FA00056023323B1F020915702222391F045EBC2
:103FB0003403C0011124992309F4E2C090935602FE
:103FC00045EB240390011124332309F4DDC0309321
:103FD00057028091540290915502892B909156027C
:103FE000892B90915702892B11F00E94A60E85E033
:103FF000FE013196A3E5B2E001900D928A95E1F7BA
:104000000E94CB0790915802891721F00E94CB079C
:104010008093580280919402843009F0D6CE85E0D6
:104020008093E9008091E80082FFCFCE8091E80084
:1040300090E085FF06C00E94F602882309F4A8C01C
:1040400091E08091E8008B778093E800992309F450
:10405000BCCE19811111B8C080916E02882309F479
:10406000CEC010926E0281E080936D0222961FAE48
:10407000229723961FAE23978EEF24968FAF249717
:1040800063E0CE018F5B9F4F0E94C5049ECE80915E
:104090009402843009F110923E020FB6F894A8956C
:1040A000C09260000FBEF092600083B7817F846091
:1040B00083BF83B7816083BF7894889583B78E7FF1
:1040C00083BF0FB6F894A8958091600088618093B3
:1040D0006000109260000FBE80919302882309F463
:1040E0007FCE0E94F10C90E090931E0180931D0101
:1040F0000E94E20A0E94F10AEFE3F2E01192AE168A
:10410000BF06E1F70E94771CEFE3F2E08191811195
:10411000B6C0EE12FBCF64CE9F5FFF0C963009F065
:104120007ACE0F5F1F4F0E30110509F06ACE8FEF68
:1041300066968FAF669767968FAF679768961FAE44
:1041400068970E949A0E8160782F6A969FAF8EAF13
:104150006A9766964FAD669767965FAD6797689664
:104160006FAD68976A968FAD6A970E94EB1B80CE01
:1041700081E080935402D8CE81E080935502DDCE59
:1041800081E0809356021CCF81E08093570221CFBB
:1041900000E410E0CE0101967C018091E80085FDED
:1041A0000AC08091E8008B778093E8000E94F602B5
:1041B000882399F345CF8091F100F70181937F0126
:1041C0000150110951F73CCF1130C9F422961FAEAE
:1041D000229723961FAF23978CE0EAE2F1E0D40107
:1041E00001900D928A95E1F78EEF60968FAF609700
:1041F0006FE0CE018F5B9F4F0E94C504E6CD80919A
:104200006D028823D1F1123041F01330F9F081E0D2
:1042100022968FAF229761E034CF6091680270914F
:10422000690280916A0290916B020E94790622963F
:104230001FAE229723961FAF239724968FAF249704
:104240008EEF25968FAF259764E01BCF8A81813052
:1042500041F0882341F08230D1F681E080936C02F6
:1042600002C010926C0222961FAE229783E0239622
:104270008FAF239780916C02E0CF8FEFC9CF09BD3C
:1042800019BD09B400FEFDCF8091D8008F7D8093C9
:10429000D8008091E00082608093E0008091E0008F
:1042A00081FDFCCF0E94880F9BCD2139314008F061
:1042B00059CE8FCE232B09F009CE3FCE1F921FB6C9
:1042C0001F9211248F939F93AF93BF9380913E02CF
:1042D000811113C08091210290912202A0912302AA
:1042E000B09124024196A11DB11D809321029093AB
:1042F0002202A0932302B0932402BF91AF919F9119
:104300008F911F901FBE1F9018951092B9008CE0DE
:104310008093B8000895EF92FF920F931F93CF936D
:10432000DF93182FEB011092BC0084EA8093BC004D
:104330000E949A0E7C018091BC0087FF27C080916B
:10434000B900887F883029F08091B900887F80315A
:10435000D9F51093BB0084E88093BC000E949A0EAC
:104360008C018091BC0087FF24C02091B900287F78
:1043700090E080E02831B1F081E090E0203411F449
:1043800090E080E09195819591090CC0CF3FDC07CA
:1043900091F20E949A0E8E199F098C179D0758F270
:1043A0008EEF9FEFDF91CF911F910F91FF90EF90D4
:1043B0000895CF3FDC07A9F20E949A0E801B910B53
:1043C0008C179D0770F2ECCF8FEF9FEFEBCF0F9321
:1043D0001F93CF93DF93EB018093BB0084E880931E
:1043E000BC000E949A0E8C018091BC0087FF11C016
:1043F0002091B900287F81E090E0283211F490E00C
:1044000080E0919581959109DF91CF911F910F9156
:104410000895CF3FDC0741F30E949A0E801B910B59
:104420008C179D0708F38EEF9FEFEECF0F931F932E
:10443000CF93DF93EC0184E88093BC000E949A0E36
:104440008C018091BC0087FF08C08091BB0090E088
:10445000DF91CF911F910F910895CF3FDC0789F332
:104460000E949A0E801B910B8C179D0750F38EEFC4
:104470009FEFEECF84E98093BC000895AA1BBB1B7D
:1044800051E107C0AA1FBB1FA617B70710F0A61B54
:10449000B70B881F991F5A95A9F780959095BC0175
:1044A000CD01089597FB072E16F4009407D077FDF1
:1044B00009D00E943E2207FC05D03EF490958195DC
:1044C0009F4F0895709561957F4F0895EE0FFF1FE0
:1044D0000590F491E02D0994F999FECF92BD81BD2C
:1044E000F89A992780B50895A6E1B0E044E050E03D
:1044F0000C94A622A8E1B0E042E050E00C94A62281
:10450000262FF999FECF92BD81BDF89A019700B48C
:10451000021639F01FBA20BD0FB6F894FA9AF99A2C
:104520000FBE08950396272F0E9481220E948022A9
:10453000252F0E948122242F0C9481220196272F5F
:104540000E9481220C948022DC01CB01FC01F999AC
:10455000FECF06C0F2BDE1BDF89A319600B40D92CF
:1045600041505040B8F708950F931F93CF93DF93B6
:104570008230910510F482E090E0E091A302F09186
:10458000A40230E020E0B0E0A0E0309799F42115DB
:10459000310509F447C0281B390B24303105C0F51B
:1045A0008A819B816115710571F1FB01938382837F
:1045B000FE0111C0408151810281138148175907C2
:1045C000F8F04817590799F4109761F012960C9378
:1045D000129713961C933296CF01DF91CF911F91C2
:1045E0000F9108950093A3021093A402F4CF211514
:1045F000310519F04217530718F49A01BD01EF0174
:10460000DF01F801C2CF9093A4028093A302D0CF20
:10461000FE01E20FF31F81939193225031093983F8
:104620002883DACF2091A1023091A202232B41F4FA
:1046300020910201309103013093A2022093A10244
:1046400020910001309101012115310541F42DB770
:104650003EB74091040150910501241B350B409158
:10466000A1025091A2024217530708F0B5CF241BB4
:10467000350B2817390708F4AFCFBC016E5F7F4FA9
:104680002617370708F4A8CF640F751F7093A2028E
:104690006093A102FA01819391939ECFCF93DF9310
:1046A0000097E9F0FC01329713821282C091A302B5
:1046B000D091A402DE0130E020E02097A1F4208117
:1046C0003181820F931F2091A1023091A2022817FD
:1046D000390709F067C0F093A202E093A102DF91CD
:1046E000CF910895DA01AE17BF0708F040C01296C7
:1046F0004D915C9113979D014115510599F7D90191
:104700001396FC93EE9312974D915D91A40FB51FF4
:10471000EA17FB0779F4808191810296840F951F37
:10472000D90111969C938E938281938113969C93C9
:104730008E931297B0E0A0E08A819B810097B9F533
:10474000FE0181919191E80FF91F8091A102909152
:10475000A2028E179F0719F6109761F51092A40216
:104760001092A302D093A202C093A102B8CFB38348
:10477000A28340815181840F951FA817B90771F456
:104780004E5F5F4F8D919C911197480F591F518338
:10479000408312968D919C919383828321153105DC
:1047A00009F0ADCFF093A402E093A30298CFDE010D
:1047B000EC01C2CF13961C921E921297D3CFF8949D
:1047C000FFCF7C0A7C0A850A850A870A850A850A42
:1047D000850A7C0A7C0A8C0A850A850A8C0AC90A21
:1047E000D50ADA0AD30AD80ADF0ADD0ABE10E610B3
:1047F0003B12E6103B1219113A113B12E611F3116C
:1048000047174717BF17BF1710182A1879177917B6
:0848100035180B191A191A19C9
:104818000000A5022000DB13F113D51200000000F0
:10482800000000000000000000000000FF2000C29F
:10483800045A0B390B350B310B01626E7261512F23
:10484800767962576200818283E200E900EA00B566
:1048580000B600B700CD008301CC008A0192019414
:10486800012102230224022502260227022A02B37A
:1048780000B4006F007000404D6D66011901AC0076
:064888007E049704B00459
:00000001FF
