:100000000C9408030C9425030C9425030C942503ED
:100010000C9425030C9425030C9425030C942503C0
:100020000C9425030C9425030C94ED0D0C94A11253
:100030000C945E230C9425030C9425030C94250347
:100040000C9425030C9425030C9425030C94250390
:100050000C9425030C94C40E0C9425030C942503D6
:100060000C9425030C9425030C9425030C94250370
:100070000C9425030C9425030C9425030C94250360
:100080000C9425030C9425030C9425030C94250350
:100090000C9425030C9425030C9425030C94250340
:1000A0000C9425030C9425030C9425030501098069
:1000B000A101850319012AB700150126B700950192
:1000C00075108100C0050C0901A101850419012AE0
:1000D000A002150126A002950175108100C005013E
:1000E0000906A1018505050719E029E71500250185
:1000F0009508750181020507190029EF15002501F2
:1001000095F075018102050819012905950575010C
:100110009102950175039101C005010902A1010930
:1001200001A100050919012905150025019505758D
:10013000018102950175038101050109300931151D
:1001400081257F95027508810609381581257F95DF
:100150000175088106050C0A38021581257F950175
:1001600075088106C0C005010906A101050719E04F
:1001700029E715002501950875018102950175088B
:1001800081010507190029FF150026FF0095067556
:100190000881000508190129059505750191029549
:1001A0000175039101C00000000000000000000084
:1001B000000000000000000000007E0F00D4FFFFE0
:1001C000FFC70000007800000000000000002A2B9C
:1001D00028000000000000000000000000000000F7
:1001E0000029000000002C1E342021222434262760
:1001F000252E362D3738271E1F2021222324252681
:100200003333362E37381F0405060708090A0B0C4E
:100210000D0E0F101112131415161718191A1B1C96
:100220001D2F3130232D350405060708090A0B0C54
:100230000D0E0F101112131415161718191A1B1C76
:100240001D2F3130354C29002B00E000E1003541F5
:1002500000001E00140004001D41095D4D001F0038
:100260001A0016001B00E1042A0020000800070005
:10027000060050002C6821001500090019004F00ED
:100280004A00220017000A000500000065645000C3
:1002900001530000000F0000E3004F000153000075
:1002A00000070000E20023001C000B00110000000A
:1002B0002961240018000D00100052004B00250099
:1002C0000C000E00360051002C00260012000F001A
:1002D00037002F0028002700130033423842300037
:1002E0004E002D0031003468E50001510000290066
:1002F000010001000100010000003A001E0220027E
:1003000001002E0001003B002D02340038020100E4
:1003100001003C002F0236023800010001003D00C0
:10032000300237023100010001003E002E022D0094
:100330003502000001000100010000000100000082
:1003400001000100010000000100000001003F0069
:100350002D021E022402000001004000210237028B
:10036000350001000100410026022F022F00370056
:100370000100420027023002300022020100430047
:1003800020022E0031022E00010044004500010031
:100390000100010000000100010001000100010056
:1003A00000000100010001000100095D01000100E1
:1003B000F400F2000100010001000100F000F10072
:1003C0000100F40001000100F500F3000100F50058
:1003D0000100010001000100010000000100010016
:1003E0000100000001000000010001000100000008
:1003F00001000000010001000100010001000000F7
:10040000010001000100500C0100A90001000100E1
:10041000520C0057510CAA00B600010001004F0C0D
:10042000AB00A80001000100010001000100010073
:100430000100005C0100AE000100010000000A00A4
:10044000000000000306B200080001000000A80040
:10045000080002000300A0001400030057494E5595
:10046000534200000000000000000000840004006F
:1004700007002A00440065007600690063006500FB
:1004800049006E0074006500720066006100630040
:10049000650047005500490044007300000050000B
:1004A0007B0039004400420037004600310046001E
:1004B00044002D0037004500370041002D00340076
:1004C0003000300038002D00390033003600420083
:1004D0002D00360042004100360043003100390053
:1004E000410033003000380063007D000000000050
:1004F0001B0301636F6E6669677572652E657267AF
:100500006F646F782D657A2E636F6D0009026B0042
:10051000040100A0FA0904000001030101000921FF
:10052000110100012240000705810308000A0904A7
:1005300001000103010200092111010001224D0007
:100540000705820308000A090402000103000000F5
:10055000092111010001226D000705830320000A13
:100560000904030002FF00000007058403400005A2
:10057000070505034000051201100200000008975E
:100580003274490100010200011603450072006740
:10059000006F0044006F007800200045005A000002
:1005A0000030035A005300410020005400650063EE
:1005B0000068006E006F006C006F0067007900201B
:1005C000004C00610062007300200049006E00636F
:1005D00000000004030904050F3900021C10050087
:1005E000DF60DDD88945C74C9CD2659D9E648A9F9B
:1005F00000000306B20045001810050038B60834A4
:10060000A909A0478BFDA0768815B66500014200B8
:1006100011241FBECFEFDAE0DEBFCDBF11E0A0E0B6
:10062000B1E0E4ECF1E502C005900D92AE37B10700
:10063000D9F722E0AEE7B1E001C01D92A13BB207BD
:10064000E1F70E94F01F0C94B5280C940000E8ED2F
:10065000F0E080818E7F80831092E2001092DA00B9
:100660001092E100A0EEB0E08C9181608C938081CB
:100670008F77808319BCA7EDB0E08C918E7F8C932F
:1006800080818F7E808310927B0208952091E40008
:100690003091E50095E6A9012091EC00822F817050
:1006A00020FF06C08091E80080FF06C080E008952A
:1006B0002091E80022FD1AC08091A002882389F0D1
:1006C000853089F08091EB0085FD0FC02091E4001A
:1006D0003091E50042175307F9F29150E1F684E0BA
:1006E000089582E0089583E0089581E00895EF92EF
:1006F000FF920F931F93CF937C018B010E944603BF
:10070000C82F882371F08C2FCF911F910F91FF90EC
:10071000EF900895F70181917F018093F1000150DE
:1007200011090115110579F38091E80085FDF2CFDB
:100730008091E8008E778093E8000E94460388232A
:1007400081F3C82FE0CF8091A20287FF13C0809170
:10075000E80082FF06C08091E8008B778093E80074
:1007600004C08091A0028111F2CF08958091A0026F
:100770008823D9F38091E80080FFF8CF8091E800CA
:100780008E77ECCF982F9093E900242F762F50E0AE
:10079000891731F07091EC002091ED005091F0003C
:1007A00021FD07C09F5F973071F78093E90081E0DA
:1007B00008953091EB003E7F3093EB003091ED00D7
:1007C0003D7F3093ED003091EB0031603093EB00D2
:1007D0007093EC002093ED005093F0002091EE0018
:1007E00027FDE0CF80E00895CF92DF92EF92FF9255
:1007F0000F931F93CF93DF93C8EDD0E088818F7E56
:100800008883E7EDF0E080818160808384E082BFAF
:1008100081E080937B0288818E7F888302EE10E0E6
:10082000F80110821092DA0081EEC82ED12CF60168
:10083000108288818F778883888180688883888107
:100840008F7D888319BC1092A0021092A102109291
:100850009F0210929E0290EEE92EF12CF70180810A
:100860008B7F808388818160888342E060E080E0C4
:100870000E94C203F60180818E7F8083F80180810F
:1008800081608083808188608083F70180818E7F92
:100890008083888180618883DF91CF911F910F9140
:1008A000FF90EF90DF90CF900895FC018091A80217
:1008B0009091A90286179707A0F06115710529F498
:1008C0008091E8008E778093E80090E061157105D3
:1008D00051F4911108C08091E80082FF35C080E09A
:1008E0000895BC01F2CF8091A0028823C9F1853020
:1008F000C9F18091E80083FD31C08091E80082FD5C
:10090000EACF8091E80080FFE1CF8091F300209151
:10091000F200382F6115710519F02830310558F0B3
:1009200091E02830310509F090E08091E8008E7761
:100930008093E800CBCF84918093F1003196615091
:1009400071092F5F3F4FE6CF8091A002882341F0CD
:10095000853041F08091E80083FFBDCF81E00895AC
:1009600082E0089583E00895FC018091A8029091AF
:10097000A90286179707A0F06115710529F49091D7
:10098000E8009E779093E80090E06115710551F4BE
:10099000911108C08091E80082FF34C080E0089582
:1009A000BC01F2CF8091A0028823C1F18530C1F152
:1009B0008091E80083FD30C08091E80082FDEACF9D
:1009C0008091E80080FFE1CF8091F3002091F20058
:1009D000382F6115710519F02830310558F091E074
:1009E0002830310509F090E02091E8002E7720931F
:1009F000E800CBCF81918093F100615071092F5FA6
:100A00003F4FE7CF8091A002882341F0853041F02D
:100A10008091E80083FFBECF81E0089582E00895D1
:100A200083E0089580917D0208952091A0022430F2
:100A300091F42093E90070E050E040E00E947703D9
:100A4000882321F01092790210927A028091E800B6
:100A50008E778093E800089590916002803F59F46A
:100A60008091610287FF0DC01092610291110BC04D
:100A700010925C0208C0813F81F4809161021816D7
:100A80009CF3992381F08091620290916302892BFB
:100A900009F064C0109259020895823F49F497FF0B
:100AA000F0CF10926002809161028111ECCFE0CF13
:100AB000833F19F41916ACF3E4CF20916202893F09
:100AC00029F41216F4F610926202DBCF8A3F19F471
:100AD00027FFD7CFF8CF209163028B3F29F427FF60
:100AE000D0CF10926302CDCF8C3F19F41216CCF305
:100AF000C8CF843F31F480915F028E7F80935F0284
:100B0000C0CF853F21F480915F028D7FF7CF863F74
:100B100021F480915F028B7FF1CF873F21F4809198
:100B20005F02877FEBCF883F21F480915F028F7E49
:100B3000E5CF8D3F31F4809131028E7F8093310279
:100B4000A0CF8E3F21F4809131028D7FF7CF8F3F70
:100B500009F097CF809131028B7FF0CF089580917B
:100B6000310280FD1AC081FD14C082FD14C0809145
:100B70005902882391F08C3370F427E0829FC001E2
:100B800011246CE370E00E945224862F672B29F019
:100B9000089583E0089587E0089581E008958091A5
:100BA000310280FD16C081FD16C082FD18C0809103
:100BB0005C02882391F08C3390F423E2829FC00181
:100BC00011246CE370E00E945224862F672B49F0B9
:100BD000089588E0089581E1089585E0089583E20D
:100BE000089581E00895803F31F40E94CF058195FA
:100BF000809361020895813F19F40E94CF05F8CFD8
:100C0000823F31F40E94CF05819580936002089560
:100C1000833F19F40E94CF05F8CF893F29F40E9441
:100C2000AF058093620208958A3F21F40E94AF05C8
:100C30008195F7CF8B3F31F40E94AF05819580936A
:100C4000630208958C3F19F40E94AF05F8CF843FEA
:100C500031F480915F02816080935F020895853F47
:100C600021F480915F028260F7CF863F21F480916A
:100C70005F028460F1CF873F21F480915F0288603A
:100C8000EBCF883F21F480915F028061E5CF8D3FFB
:100C900031F48091310281608093310208958E3F5A
:100CA00021F4809131028260F7CF8F3FB9F78091B4
:100CB00031028460F1CF9C014FB7F89480912D02EE
:100CC00090912E02A0912F02B09130024FBF821B53
:100CD000930B089520912C012223C9F02091460204
:100CE00027FF15C0E62FE695E695E695EE31D8F498
:100CF000E80FF92FF11D677021E030E001C0220FED
:100D00006A95EAF720958281282322830895FC01C1
:100D1000329608962191621303C0DF0111971C924D
:100D2000E817F907B9F7089520912C012223C1F0A3
:100D30002091460227FF14C0E62FE695E695E6953A
:100D4000EE31F8F4E80FF92FF11D677021E030E083
:100D500001C0220F6A95EAF78281822B828308956F
:100D6000FC0132962FEF30E04191641751F02F3F94
:100D700019F4411101C0232F3F5F3630A9F72F3FEF
:100D800009F40895820F911D27FD9A95FC01628355
:100D90000895CF92DF92EF92FF926C01EE24FF2430
:100DA00020E0C114D104E104F10419F0C701B60137
:100DB00020E1C72ED82EE92EFF24C114D104E1046E
:100DC000F10419F0285FC701B6016B017C0154E002
:100DD000F694E794D794C7945A95D1F7C114D104E7
:100DE000E104F10419F02C5FC701B6016B017C012D
:100DF00042E0F694E794D794C7944A95D1F7C1148A
:100E0000D104E104F10419F02E5FC701B6019695F3
:100E1000879577956795672B682B692B09F02F5F6E
:100E2000822FFF90EF90DF90CF900895809128025D
:100E3000811110922802089580959091270298239D
:100E4000909327020895809590912602982390937D
:100E5000260208958091260290912702892B909175
:100E60002502892B80937E01909128029923A1F07D
:100E7000892B80937E0180912C01882341F1809100
:100E8000460287FF24C08EE1E0E8F1E090E0815067
:100E900000F591110E941607E0914802F091490275
:100EA0003097E1F080912C01882359F0809146021F
:100EB00087FF07C080917E0180937F0185E080934A
:100EC0007E010280F381E02D8EE791E0099486E0B7
:100ED000DBCF21912223D9F29F5FD9CF0895E92F4B
:100EE000EE0FE90FEE0F8E0F982F9770869586956F
:100EF000869525E0829FF0011124E351FE4F50E0DA
:100F000040E080E0219130E0092E02C0369527951F
:100F10000A94E2F721703327042E01C0220F0A94AD
:100F2000EAF7822B4F5F5F4F4530510559F708951F
:100F3000E92FEE0FE90FEE0F8E0F982F977041E01B
:100F400001C0440F9A95EAF786958695869595E0B7
:100F5000899FF0011124E351FE4F30E020E070E062
:100F60005191DF011197CB01022E02C09695879512
:100F70000A94E2F7817081958527842385278C93D5
:100F80002F5F3F4F2530310559F708958091EC01CF
:100F90009091BB01981301C008958F5F8770FACFBD
:100FA000882321F00E941C070C942A0708958823A7
:100FB00039F090912702982B909327020C942A07DE
:100FC0000895882321F00E9423070C942A0708958E
:100FD000882339F090912602982B909326020C9446
:100FE0002A0708952091AC013091AD0128173907E7
:100FF00071F09093AD018093AC01E0914802F091C3
:101000004902309721F00084F185E02D099408957C
:101010002091AA013091AB012817390771F0909304
:10102000AB018093AA01E0914802F0914902309708
:1010300021F00680F781E02D09940895E09148029F
:10104000F0914902309721F00190F081E02D099450
:1010500080E00895CF93DF93EC0181E0898B80914C
:1010600026029F81892B80932602809127029885F2
:10107000892B809327020E942A07EA81FB813097FF
:1010800039F06C897D89CE010696DF91CF91099464
:10109000DF91CF910895EF92FF920F931F93CF931B
:1010A000DF93EC018A85811134C0EB80FC8087E5F9
:1010B000F81A26E12E9DC0012F9D900D1124DC0110
:1010C000AA5FBE4F1496ED91FC911597309731F0C1
:1010D00054966D917C91845F9E4F099586E18E9D1B
:1010E00080018F9D100D11240A5F1E4FF80187812A
:1010F0000E942307F80180850E941C070E942A078E
:10110000188219861B861E821D821092AF011092D2
:10111000AE01DF91CF911F910F91FF90EF90089555
:101120009091460292FF06C0282F28712830F9F4CA
:10113000877F846093FF06C0282F28712831F1F43F
:10114000877E84612091470220FF06C0382F3871C6
:101150003830D9F4877F816021FF06C0282F28719D
:101160002831D1F4877E816194FD877E0895282FF0
:1011700024712430F9F68B7F8860DCCF282F24710E
:10118000243101F78B7E8861DDCF382F317131300A
:1011900019F78E7F8860E0CF282F2171213121F748
:1011A0008E7E8861E1CFCF93DF93972F70E026E0AA
:1011B000929F600D711D1124FB0134E5839FE00DAA
:1011C000F11D1124EE0FFF1FEA5BFD4FC591D49175
:1011D000CE01C238D105B9F1E8F5C133D10509F422
:1011E00099C050F5C932D10509F48DC0CA32D10574
:1011F00009F497C0C11521E5D20708F0BFC0C11599
:1012000030E5D30708F016C1C83ED10508F09DC0EF
:10121000C03ED10568F5C83AD10508F089C0C53A85
:10122000D10508F0FFC0C130D10511F1209709F4B4
:1012300043C02497E8F440C0C533D10509F45CC02D
:10124000C933D105B9F620914602237089F080EEAA
:1012500090E00EC0C33ED10591F168F4C03ED105C7
:10126000F9F0C23ED10531F62091460222FD20C0A0
:10127000DF91CF910895C63ED10561F1C73ED105FA
:1012800081F1C43ED10509F0B5CF2091470221FF7D
:10129000EFCF8091460284FD0FC087EE90E0E8CF4B
:1012A0002091460220FD12C13091470230FFE0CF6D
:1012B00083EE90E024FFDCCF90E080E0D9CF209156
:1012C000460222FD06C13091470230FDC0CF24FF07
:1012D000CFCFF2CF2091460223FFCACF24FDECCF1F
:1012E000DCCF2091460223FDF7C03091470231FF49
:1012F000EECF84EE90E0BCCF2091460225FFB8CF20
:1013000089E290E0B5CF2091460225FFB1CF85E379
:1013100090E0AECF2091460226FFAACF8AE290E06D
:10132000A7CF2091460226FFA3CF81E390E0A0CF74
:10133000CF3BD10508F6C85AD0E0CC0FDD1FCF5BFC
:10134000DE4F88819981946493CFC11520E2D20742
:1013500060F4C11531E0D30708F08ACFCE01906563
:10136000C03FD10508F084CFA7CFC11580E4D807CE
:1013700008F4A2CFCE019F70906A7ACFC11595E58F
:10138000D90710F5C11524E5D20708F088C0C115AA
:1013900033E5D30708F06FC0C11582E5D80708F41C
:1013A00065C09E012370332781E090E002C0880F62
:1013B000991F2A95E2F7C695C69520E2C29FE001E3
:1013C00011248C2B9D2B50C0C11599E5D907A0F491
:1013D000C11528E5D20708F067C0C11536E5D30767
:1013E00008F06ACF8C2F0E94900890E0982F8827F1
:1013F00088279F7190623CCFC1158AE5D80708F411
:1014000058C0CE0190568115904208F055CF8D2FCF
:101410008F710E94900890E0982F882788279F71ED
:101420008C2BE8CFC55AD0E0C25CDE4F888190E0BB
:1014300090641ECF9E01E4E036952795EA95E1F78A
:1014400023708C2F86958695837030E2839FC00130
:101450001124922BC37021E030E002C0220F331F11
:10146000CA95E2F7822B932B9C6802CF9C2F88278A
:10147000816F906AFDCE9E012370332781E090E05A
:1014800002C0880F991F2A95E2F7C695C69530E2EB
:10149000C39FE00111248C2B9D2B9A68E9CE9C2FD1
:1014A0008827846F906AE4CE9C2F8827806F906A8B
:1014B000DFCE8C2F8F700E94900834E0D695C795B0
:1014C0003A95E1F7CF709C2F9069D2CE89E390E0F6
:1014D000CFCE82EE90E0CCCE86EE90E0C9CEBF9229
:1014E000CF92DF92EF92FF920F931F93CF93DF93F0
:1014F0008C01C0907402D0907502E0907602F0905A
:1015000077028091290290912A02A0912B02B0913A
:101510002C02C82AD92AEA2AFB2ACFE1D0E0BC2E25
:10152000D701C6010C2E04C0B695A795979587954F
:101530000A94D2F780FD0EC0219788F7B12C8B2D2D
:10154000DF91CF911F910F91FF90EF90DF90CF909F
:10155000BF900895B8018C2F0E94D308019761F3C2
:10156000EECFCF93DF93EC010E946F0ABE01DF91B3
:10157000CF910C94D3080E94B10A292F2F70929515
:101580009F7092509E3078F4E92FF0E0E954F74DC7
:101590000C946624803F19F020F4883E20F481E00A
:1015A0000895843FE1F380E00895883EC0F3813FD1
:1015B000D1F7F5CF822F86958695869508959C0163
:1015C000832F817032FD84608860FB010994279825
:1015D0002F98089526982E98089525982D98089567
:1015E00056985E980895279A2F9A0895269A2E9ACB
:1015F0000895259A2D9A0895CF92DF92EF92FF9247
:10160000CF936B017C010E94C906C82F0E94F00A8B
:101610000E94ED0A0E94EA0A0E94E70AC150C73000
:1016200040F4EC2FF0E0EB53F74D0C9466240E944D
:10163000F90AC701B601CF91FF90EF90DF90CF90EC
:1016400008950E94F90A0E94F60AF3CF0E94F90A4F
:101650000E94F30AEECF0E94F90A0E94F60AF8CF20
:10166000209828982198299822982A9823982B988E
:1016700052985A9853985B983E9846980895809847
:10168000889A8198899A84988C9A85988D9A869858
:101690008E9A87988F9A0895CF9384E090E00E9465
:1016A000A324C82F81E290E00E94A324982F8C2FBE
:1016B000CF910895CF93DF9300D00F92CDB7DEB7CF
:1016C0009091A002943019F589837B836A8383E02B
:1016D0008093E9008FEF9091E800815095FD06C05E
:1016E00095ED9A95F1F700008111F5CF8091E80012
:1016F00085FF0DC050E040E063E070E0CE01019650
:101700000E9477038091E8008E778093E8000F9025
:101710000F900F90DF91CF910895BC0184E00C945D
:101720005A0BBC0183E00C945A0B9C0182E080931D
:10173000E9009FEF8091E800915085FD06C085ED9E
:101740008A95F1F700009111F5CF8091E80085FFAF
:101750000CC050E040E065E070E0C9010E947703F2
:101760008091E8008E778093E8000895CF93DF930F
:10177000EC0180912C018823B1F18091460287FF12
:1017800032C060E283E08093E9008FEF9091E8003F
:10179000815095FD06C095ED9A95F1F700008111F5
:1017A000F5CF8091E80085FF1BC080912C0170E08F
:1017B00050E040E0811104C050E040E068E070E09B
:1017C000CE010E9477038091E8008E778093E80035
:1017D00080E2FE01AEE7B2E001900D928A95E1F75A
:1017E000DF91CF91089568E081E0CDCFEF92FF9235
:1017F0000F931F93CF93DF930E94F00A0E94ED0A8C
:101800000E94EA0A0E94E70A88E8E82EF12C8FEF8E
:1018100090E0F701918380830AE810E0F80191835A
:101820008083CCE8D0E0998388830E94F90AFFEF97
:1018300020E782E0F15020408040E1F700C0000046
:101840000E94F60A9FEFE0E7F2E09150E040F0409E
:10185000E1F700C000000E94F30A2FEF80E792E05A
:10186000215080409040E1F700C000000E94ED0A46
:10187000EFEFF0E722E0E150F0402040E1F700C058
:1018800000000E94EA0A8FEF90E7E2E0815090406A
:10189000E040E1F700C000000E94E70A80913402B6
:1018A0008770FFEF8F9FC0011124959587959595BF
:1018B00087959927F70191838083F801918380832D
:1018C000998388830E94F00A0E94ED0A0E94EA0A26
:1018D000DF91CF911F910F91FF90EF900C94E70A49
:1018E0006FEE7EEF90E080E00E94D52460E082E021
:1018F00090E00E94B72460E083E090E00E94B7246B
:101900001092290210922A0210922B0210922C029D
:1019100060E084E090E00E94B72460E081E290E023
:101920000E94B72460E085E090E00E94B72460E068
:1019300086E090E00E94B7246FEF87E090E00E947D
:10194000B72440E050E0BA0188E090E00E94C9244A
:1019500060E08DE090E00E94B72440E050E0BA01E2
:1019600088E190E00E94C92460E087E190E00E9455
:10197000B72440E050E0BA018CE190E00E94C92415
:1019800060E080E290E00E94B72440E050E0BA01BD
:1019900088E190E00E94C92410923402109235022E
:1019A000109236021092370284E0806180933402F4
:1019B00040913402509135026091360270913702A5
:1019C0008FE090E00E94C92440E050E0BA0183E13A
:1019D00090E00C94C924CF93C82F873070F5809184
:1019E000200190912101892B89F564E670E080E463
:1019F0000E948B239093210180932001892BD1F4A5
:101A000064E670E082E10E94E723909321018093D5
:101A10002001892B79F481E090E001C0880FCA95FC
:101A2000EAF764E670E080950E94E7239093210135
:101A300080932001CF910C943A248A30B9F040F47D
:101A4000883071F0893079F0209A2898CF910895E4
:101A50008C3091F070F08D30B9F73E9A4698F6CF01
:101A6000219A2998F3CF229A2A98F0CF239A2B987B
:101A7000EDCF529A5A98EACF539A5B98E7CF80E21B
:101A800090E0909321018093200180919E0181112B
:101A90000EC00E94852381E080939E012FEF83ED8D
:101AA00090E3215080409040E1F700C0000064E6E0
:101AB00070E080E40E948B239093210180932001A9
:101AC000892B09F04EC064E670E080E00E94E723B5
:101AD0009093210180932001892B09F042C064E694
:101AE00070E080E00E94E723909321018093200121
:101AF000892BB9F564E670E08FE30E94E7239093A9
:101B0000210180932001892B61F50E943A2464E62B
:101B100070E080E40E948B23909321018093200148
:101B2000892BF9F464E670E08CE00E94E72390933F
:101B3000210180932001892BA1F464E670E080E00C
:101B40000E94E7239093210180932001892B49F47F
:101B500064E670E08FE30E94E72390932101809375
:101B600020010E943A24809120010895CF9387306C
:101B700050F58091200190912101C0E0892B71F4F2
:101B800064E670E081E40E948B23909321018093AE
:101B90002001892B31F0C0E00E943A248C2FCF9194
:101BA000089584E690E00E94162497FF05C0909364
:101BB000210180932001EFCFC82FC0951092210101
:101BC00010922001E9CFCFB18FB1869586958C73A5
:101BD000C3708C2BC82FC095E1CF1F920F920FB608
:101BE0000F9211242F933F934F935F936F937F93A3
:101BF0008F939F93AF93BF93EF93FF938091E100F7
:101C000082FF09C08091E20082FF05C08091E1005F
:101C10008B7F8093E1008091DA0080FF24C0809167
:101C2000D80080FF20C08091DA008E7F8093DA0098
:101C30008091D90080FF9BC080E189BD82E189BD90
:101C400009B400FEFDCF81E08093A00280917B0269
:101C5000811109C00E9427030E94F4038091E200D1
:101C600084608093E2008091E10080FF17C0809142
:101C7000E20080FF13C08091E2008E7F8093E2003B
:101C80008091E20080618093E2008091D8008062C0
:101C90008093D80019BC85E08093A0028091E10078
:101CA00084FF29C08091E20084FF25C080E189BDC6
:101CB00082E189BD89B5982F917080FFFBCF80911B
:101CC000D8008F7D8093D8008091E1008F7E809333
:101CD000E1008091E2008F7E8093E2008091E2003B
:101CE00081608093E2008091A102882309F445C0BD
:101CF00084E08093A0028091E10083FF27C080915F
:101D0000E20083FF23C08091E100877F8093E100A0
:101D100082E08093A0021092A1028091E1008E7F68
:101D20008093E1008091E2008E7F8093E2008091B9
:101D3000E20080618093E20042E060E080E00E9487
:101D4000C2038091F00088608093F000FF91EF91D2
:101D5000BF91AF919F918F917F916F915F914F91C3
:101D60003F912F910F900FBE0F901F90189519BCA7
:101D70001092A00210927B0276CF8091E30087FD43
:101D800093E09093A002B7CF78941F921FB61F9252
:101D900011248F939F93AF93BF9380912D029091C5
:101DA0002E02A0912F02B09130020196A11DB11D0B
:101DB00080932D0290932E02A0932F02B0933002B5
:101DC000BF91AF919F918F911F901FBE1F9018954B
:101DD0002FB7F89480912D0290912E02A0912F029E
:101DE000B09130022FBF08950E94E80E9C0190919F
:101DF000600280916102982B21F030935E02209363
:101E00005D029091620280916302982B21F03093E1
:101E10005B0220935A02E0914802F0914902309708
:101E200031F00480F581E02D8FE592E0099408956A
:101E300010922702109225020E942A0785E0EFE502
:101E4000F2E0DF011D928A95E9F710925C02109290
:101E50005902109231020E94F40E90E080E00E943C
:101E6000080890E080E00C94F207CF92DF92EF92A6
:101E7000FF92CF93DF9300D000D0CDB7DEB70E94A2
:101E8000FC0A6B017C0180917802882321F080910B
:101E90007902811115C0C0927402D0927502E0924D
:101EA0007602F09277020E94180F0F900F900F9019
:101EB0000F90DF91CF91FF90EF90DF90CF9008953A
:101EC000198282E08A83C701B6010E94C9068B830A
:101ED0008EEF8C8364E0CE0101960E941505DBCF66
:101EE0000F931F9341E050E060E070E004C0440FA6
:101EF000551F661F771F8A95D2F7CB01BA016095EF
:101F000070958095909500917402109175022091C2
:101F100076023091770260237123822393231F91ED
:101F20000F910C94350F9091240280958923809312
:101F30002402282F277071F4282F082E000C330B51
:101F40009217130639F08595859585950E94700F37
:101F50001092240208950F931F9341E050E060E037
:101F600070E004C0440F551F661F771F8A95D2F793
:101F70008091740290917502A0917602B0917702DF
:101F80008A019B01082B192B2A2B3B2BC901B80175
:101F90001F910F910C94350F6093290270932A02C0
:101FA00080932B0290932C020C94180F109226020F
:101FB00080912C01E0E8F1E0882359F080914602FD
:101FC00087FF07C08EE1DF011D928A95E9F70C9427
:101FD000180F86E0F8CF1F93CF93DF93CDB7DEB70E
:101FE000AA970FB6F894DEBF0FBECDBF82EA92E08B
:101FF0002091F100FC012193CF01F2E08A3A9F0782
:10200000B9F78091A302893009F444C018F58230F1
:1020100009F4B9C0833009F46EC0813031F5809184
:10202000A202813A11F58091E800877F8093E80051
:102030008091A6029091A702892B41F560E28EE77C
:1020400092E070E00E94B4048091E8008B77809366
:10205000E8000BC08B3009F46BC008F483C08234F5
:1020600009F4A2C0853409F4BCC08091E80083FF64
:1020700050C28091A2029091A3029A3008F049C206
:10208000E92FF0E0E453F74D0C94662460E090E013
:1020900080E0D7CF8091A202813239F78091A602E9
:1020A0009091A702009711F00297F9F68091E8004D
:1020B000877F8093E8008091E80082FF17C09091AD
:1020C000F3008091F200029729F48091F1008B7F58
:1020D000813021F48091F10080937D028091E800AD
:1020E0008B778093E8000E94A303BFCF8091A0026A
:1020F0008111E1CFBACF8091A202813A09F0B5CF28
:102100008091A6029091A702892B09F0AECF809111
:10211000E800877F8093E8008091E80080FFFCCF93
:1021200080912C018093F1008091E8008E77D9CFC7
:102130008091A202813209F098CF8091A6029091FD
:10214000A702892B09F091CF8091E800877F8093C7
:10215000E8000E94A3038091A40280932C010E94B6
:10216000D60F83CF8091A202813209F07ECF809179
:10217000E800877F8093E8000E94A3038091A50276
:1021800080937C0272CF8091A202813A09F06DCFD8
:102190008091E800877F8093E8008091E80080FFCD
:1021A000FCCF80917C02BECF8091A202803C09F0DE
:1021B0005CCF8091A6029091A702029739F5809199
:1021C000A4029091A502892B09F58091E800877FF0
:1021D0008093E8006BE170E080EF94E00E9455048A
:1021E00082CF8091A202803C09F03FCF8091A6026D
:1021F0009091A702079751F48091E800877F809320
:10220000E80062EB70E08EE394E0E8CF8091EB00B1
:1022100080628093EB0029CF803899F0823809F0F2
:1022200078C18091A6028F70873008F072C18093C8
:10223000E9008091EB0085FB882780F91092E90086
:1022400006C080919E0290919F02911182609091B0
:10225000E800977F9093E8008093F1001092F100DE
:102260008091E8008E7751C1882309F43FC1823004
:1022700009F04FC18091A402811142C18091A60250
:102280008F702FEF280F263008F043C18093E900AC
:102290002091EB0020FF34C1933031F48091EB00AA
:1022A00080628093EB002CC19091EB009061909341
:1022B000EB0021E030E001C0220F8A95EAF720937D
:1022C000EA001092EA008091EB008860EACF811169
:1022D00020C11091A4021F778091E3008078812BA8
:1022E0008093E3008091E800877F8093E8000E945C
:1022F000A3038091E80080FFFCCF8091E300806819
:102300008093E30082E0111183E08093A00201C179
:102310008058823008F0FDC08091A4029091A502FF
:102320008C3D23E09207A1F583E08A838AE28983CA
:102330004FB7F894DE01139620E03EE051E2E32F20
:10234000F0E050935700E49120FF03C0E295EF7056
:102350003F5FEF708E2F90E0EA30C0F0C7968D930C
:102360009D932F5F243159F74FBF8091E800877FFD
:102370008093E8006AE270E0CE0101960E94B40406
:102380008091E8008B778093E800C3C0C096E7CFC8
:102390002091A6023091A702492F552743305105BD
:1023A00051F1A0F44130510509F459C06BE670E0D9
:1023B0008CE095E04230510509F0ABC02091E80077
:1023C000277F2093E8000E945504DACF413251055F
:1023D00039F14232510591F14F30510509F099C060
:1023E000E9EDF5E0649170E087ED95E06115710528
:1023F00009F48FC0E3CF99278130910571F00097E0
:1024000031F0029709F085C0E9E8F5E002C0E3ED9C
:10241000F5E0649170E0CF01E9CFE1EAF5E0F9CFB2
:102420002330310508F075C0220F331FF901E85839
:10243000FE4F8081918169E070E0C0CF233031058B
:1024400008F067C0F901EE0FFF1FEE58FE4F8081C4
:10245000918121593E4FF901608170E0C7CF62E15F
:1024600070E087E795E0AACF803809F052C08091EC
:10247000E800877F8093E8008091A1028093F100BB
:10248000EFCE811146C01091A402123008F041C075
:102490008091E800877F8093E8001093A1020E945A
:1024A000A303112311F084E005C08091E30087FDB0
:1024B000FACF81E08093A00242E061EC81E00E94CB
:1024C000C20342E061EC82E00E94C20342E261EC9E
:1024D00083E00E94C20342E361EC84E00E94C203F5
:1024E00042E360EC85E00E94C20313C08091A40225
:1024F000813079F481E0933009F080E080939F028D
:102500001092E9008091E800877F8093E8000E94A4
:10251000A3038091E80083FF0AC08091E800877FD1
:102520008093E8008091EB0080628093EB00AA9694
:102530000FB6F894DEBF0FBECDBFDF91CF911F91D4
:1025400008951F920F920FB60F9211242F933F936D
:102550004F935F936F937F938F939F93AF93BF93AB
:10256000CF93DF93EF93FF93D091E900DF708091D9
:10257000EC00C82FC17080FDC0E81092E900809186
:10258000F000877F8093F00078940E94EB0F109208
:10259000E9008091F00088608093F000CD2BCF702F
:1025A000C093E900FF91EF91DF91CF91BF91AF917F
:1025B0009F918F917F916F915F914F913F912F915B
:1025C0000F900FBE0F901F901895882379F19CEF04
:1025D000980F913A38F4682F8EE791E00E946A06CE
:1025E0000C942A0790E2980F983050F4877091E08D
:1025F00001C0990F8A95EAF7892F0E942307F0CF2F
:102600009BE5980F933020F490E080E00C9408084C
:1026100098E5980F973120F490E080E00C94F20751
:10262000803F20F00E942C050C94F40E0895CF9367
:10263000DF93EC010E94E51260ED77E0CE01DF91BF
:10264000CF910C94DF0A8FE39CE90197F1F700C06A
:1026500000008091A001833059F0853011F0813065
:1026600021F480E199E00E9417131092A0010895CF
:1026700089E09CE0F8CFCF93C82F882309F46EC07F
:102680008CEF8C0F813AB8F580912C01882311F1E1
:102690008091460287FF1EC0EC2FE695E695E695F1
:1026A000F0E0E258FE4F828190E04C2F477021E02D
:1026B00030E002C0220F331F4A95E2F782239323B2
:1026C000892B89F06C2F8EE791E00E946A060E94A8
:1026D0002A0709C0E0E8F1E08191C81799F381E089
:1026E000E638F807C9F76C2F8EE791E00E94940650
:1026F000CF910C942A0780E28C0F883068F4C77061
:1027000021E030E001C0220FCA95EAF7809126024D
:10271000822B80932602ECCFEBE5EC0FE33040F404
:10272000F0E0E25CFE4F808190E0CF910C940808CD
:10273000E8E5EC0FE73150F4F0E0EE0FFF1FEF5B40
:10274000FE4F80819181CF910C94F207C03F30F011
:102750008C2F0E94F305CF910C94F40ECF91089525
:10276000CF93C82F0E943B13C93349F42FEF87EE54
:1027700093E0215080409040E1F700C000008C2F92
:10278000CF910C94E5120F931F93CF93DF93C62F35
:10279000D42F022FFC0182818823A1F06093AC0228
:1027A0000E94E80E9093AB028093AA02C77081E06A
:1027B00001C0880FCA95EAF7DF91CF911F910F9161
:1027C0000C94E8078091AC02681335C08091AA028E
:1027D0009091AB020E945B068839910560F510E28A
:1027E0001D0FCD17B9F080E28C0F883040F4C77010
:1027F00081E001C0880FCA95EAF70E94E10718300E
:1028000048F481E09D2F977001C0880F9A95EAF7F0
:102810000E94E807802F0E94B013183098F4D770F8
:1028200081E001C0880FDA95EAF7DF91CF911F911F
:102830000F910C94E107C77081E001C0880FCA9521
:10284000EAF7F3CFDF91CF911F910F9108950F9386
:102850001F93CF93DF938C01EB0180911F0182FFC7
:102860002DC08B7F80931F018091B2012091B00118
:102870003091B101AB01421B530B20911D013091EE
:102880001E014217530778F40E943B1380911F01E9
:102890008D7F80931F018091B2010E94E51282E03A
:1028A0000E941C0715C09091270292609093270206
:1028B0000E943B1380911F018260EBCF802F0E940A
:1028C000E5128091B2019091B3010817190739F30D
:1028D0000E942A07D093B101C093B001DF91CF913C
:1028E0001F910F910895CF93C82F67ED77E00E9455
:1028F000DF0A8C2FCF910C943B1380E199E00E946A
:10290000731480E199E00C941713CF93DF93EC01DB
:102910008881833031F40E947D140E947D140E94CE
:102920007D148881843020F0DF91CF910C947D1448
:10293000DF91CF910895FC018081813071F4818510
:10294000882331F081E08093A00180E199E012C0FA
:1029500082858823B9F382E010C08230B9F4818582
:1029600081110EC08285811107C083E08093A00190
:1029700089E09CE00C94731484E08093A001089596
:1029800085E08093A0010E947D14DFCF86E0F5CF23
:102990004F925F926F927F928F929F92AF92BF926F
:1029A000CF92DF92EF92FF920F931F93CF93DF931B
:1029B000CDB7DEB728970FB6F894DEBF0FBECDBFF8
:1029C0007C01DC0113968D919C911497892B41F029
:1029D0001C911196DC90812F8D218F3F09F08BC6C1
:1029E00028960FB6F894DEBF0FBECDBFDF91CF9112
:1029F0001F910F91FF90EF90DF90CF90BF90AF901D
:102A00009F908F907F906F905F904F9008950E945D
:102A10006F0A082F682F89819A810E949807E12FF9
:102A2000F0E0B6E0DB9EE00DF11D112424E5029FED
:102A3000E00DF11D1124EE0FFF1FEA5BFD4F059124
:102A40001491D70112968C918111F2C08091780275
:102A500081112EC10A32BDE51B07E9F5F70182811C
:102A60008823C9F18091340291E0980F9770887F94
:102A7000953008F4892B809334028091340287705A
:102A8000FFEF8F9FC00111249595879595958795A8
:102A90009927909389008093880090938B0080936E
:102AA0008A0090938D0080938C0040913402509165
:102AB000350260913602709137028FE090E00E94FB
:102AC000C924609174027091750280917602909190
:102AD00077020E94FC0AC80197558F3F910511F0BB
:102AE00008F047C020911C01022E000C330B281760
:102AF000390714F480931C01D70112962C91129778
:102B000036E1389F5001399FB00C1124F501EA5F7E
:102B1000FE4F6F01208B12969C918681992309F4B8
:102B2000E3C0128701878F5F86830E94E80ED6017B
:102B30001E969C938E931D978091280217968C93D6
:102B400017978091270290912602892B18968C93D3
:102B50001897ED91FC911197309739F054966D913B
:102B60007C91C501845F9E4F09951093AF0100933E
:102B7000AE010E94E80E6C01D70112968C91882359
:102B800011F180911F0182FF05C0B60190E080E045
:102B90000E94271482E00E941C070931BCE51B0734
:102BA00009F426C108F0ADC00731FCE51F0709F4A0
:102BB00015C180911D0190911E01059708312CE5EA
:102BC000120709F410C10B32110539F008F0B7C132
:102BD000C8014E970A9708F0BDC1D70112968C9193
:102BE000882309F4CDC180911F0180FFA9C0909175
:102BF00026029111A5C01093B3010093B201D092A7
:102C0000B101C092B001846080931F0182E00E94F4
:102C1000930F80912402877009F4E2CED7011296B7
:102C20008C91882309F4DCCE82E00E94930FD8CEE9
:102C300080911C018F3F09F409CF76E0C72E71E027
:102C4000D72EB12CA12C7724739480911C01082ECF
:102C5000000C990B8A159B050CF4F8CEF6018681C1
:102C60008823F9F0818592858017910739F4809146
:102C7000AE019091AF018017910799F0D6011F9690
:102C80007C921F971C961C930E931B9751968C91C8
:102C9000811103C0C6010E942A08C60106960E943F
:102CA0004B08BFEFAB1ABB0AE6E1CE0ED11CCDCF6D
:102CB00080917902882309F4CDCE1982D70112962A
:102CC0008C9181110FC082E18A83D7018C918B8313
:102CD00011968C918C838EEF8D8365E0C4010E94E8
:102CE0001505B8CE81E1F0CF882309F442CF818960
:102CF000882309F43ECFC501845F9E4F0E944B0894
:102D000038CF0B313CE51307B1F070F080911F0113
:102D10008E7F0C319CE5190709F055CF80931F0178
:102D200082E00E941C070CC090911F01892F8E7FAA
:102D300090FF8160F3CF80911F01816080931F011C
:102D4000F7018281882309F4ECC41092AC020230AE
:102D5000FCE51F0708F410C206312CE5120738F015
:102D600098012B5F3C452730310508F005C20E94D1
:102D70004C0B90934702809346020F303CE51307BB
:102D800009F4DBC108F058C108309CE5190709F4C3
:102D9000BEC108F02BC10430BCE51B0709F4A7C174
:102DA00008F017C10230FCE51F0709F49CC18091AF
:102DB0004602826003301C4509F42AC16091460234
:102DC0001091470284E090E00E94B724612F81E2D5
:102DD00090E00E94B7240E94D60F1BCF80911D0166
:102DE00090911E01059690931E0180931D01A8CF1E
:102DF00080911E018F9380911D018F938DE291E050
:102E00009F938F931F9288E08F939F928F920E943F
:102E100016260FB6F894DEBF0FBECDBF64015AE090
:102E2000452EF6012081222309F48ACF213009F0B2
:102E300047C091818281913049F4F2E0CF0ED11CDC
:102E40000E94B0139FEFC91AD90AEBCF923031F428
:102E500022E0C20ED11C0E943B13F4CF933031F418
:102E600032E0C30ED11C0E94E512ECCF943021F069
:102E70008FEFC81AD80AE6CF92E0C90ED11C30E015
:102E800020E0A6014F5F5F4F8053990B8A30910578
:102E900050F021503109B0F2EFE9FFE03197F1F73E
:102EA00000C00000F6CF429EB001439E700D112479
:102EB0009C01260F371FD60111968C916A01E1CF34
:102EC000E22FF0E0EA53FE4F5490822F86958695CC
:102ED000869590E0FC01EA54FE4F64902770712CB7
:102EE000022E02C0759467940A94E2F731E06322DF
:102EF0007724FC01EA55FE4FA490B12C02C0B59492
:102F0000A7942A95E2F781E0A822BB2461147104FA
:102F100019F081EE0E943B13A114B10419F086EE62
:102F20000E943B13852D0E94B013AB2819F086EE4A
:102F30000E94E512672809F485CF81EE94CF0D3207
:102F4000110540F00933110508F447CE0436110588
:102F500009F443CE043FBCE51B0761F1B0F4093D21
:102F6000FCE51F0719F10A3D2CE5120779F1083D30
:102F70003CE5130709F0E4CE26E241EE61EE12C013
:102F8000B601C8010E94271444CE063F8CE51807FD
:102F9000C9F0A0F027E245EE66EE073FACE51A0760
:102FA00009F0CECEC7010E94C31333CE27E245EE0F
:102FB00065EEF8CF26E241EE60EEF4CF27E245EE73
:102FC00064EEF0CF26E241EE62EEECCF28E241E083
:102FD000EFCF80914602806106303CE51307C1F0D7
:102FE00008F489C080914602806212C00B309CE5D3
:102FF000190709F49AC078F40930BCE51B0709F4F5
:103000008AC0809146028C600A301C4509F0D6CEF9
:1030100080934602D3CE809146028B7F0D30FCE533
:103020001F07B1F3809146028D7F0E301C4580F35F
:1030300080914602877FECCF0B3F3CE5130709F4F4
:103040005EC048F502319CE5190709F47EC060F4C2
:103050000031BCE51B0709F474C0809146028F7BE8
:1030600001311C45A9F2AACE0431FCE51F0709F481
:103070007AC008F470C005311C4509F09FCE8091DC
:10308000460282FB992790F921E0922790FB82F972
:1030900090FB83F9BDCF0E3F8CE5180709F449C0BA
:1030A00070F40C3FACE51A0771F1809147028E7FF6
:1030B0000D3F1C4509F082CE809347027FCE01155B
:1030C000EDE51E0709F44BC060F101301D4509F024
:1030D00075CE80914702982F909591708E7F892BA5
:1030E00090FB81F9E9CF80914602816091CF809178
:1030F000460284608DCF80914602886089CF80919E
:1031000047028160D9CF809147028260D5CF8091FC
:10311000460280647DCF0E94D60F8091460280686F
:1031200077CF809147028360C7CF809146028E7F20
:103130006FCF809147028D7FBFCF809146028F7EF7
:1031400067CF809146028F7D63CF0E94D60F80911A
:1031500046028F775DCF80914602837F59CF809161
:1031600047028C7FA9CF0E94D60F90914602892FEB
:1031700097FB87F980584CCF06313CE5130709F0DF
:10318000DEC2809126028A7A91E009F490E0909361
:10319000B40169E2811165E38EE791E00E94940633
:1031A0000E942A0736CD0E94700C33CD80917A029E
:1031B00091E0892780937A022CCDF701008111815B
:1031C000882309F440C0C8010E946F0AD82E682FD6
:1031D000C8010E949807B8018D2D0E94D3088C0168
:1031E000682ED7011596AC901597A2944FE0A422B3
:1031F0001296DC90D11010922702809124028770E1
:1032000099F0DD2089F0812F807F803421F080E2E9
:10321000800F883048F082E00E94930F8091240252
:103220008770CC24C3948111C12CB12EB2943FE09D
:10323000B322BBE0BB1508F43DC0EB2DF0E0EA5231
:10324000F74D0C946624C8010E946F07D82EC3CF97
:10325000E12FEF70AE2E107F19F0A29420EFA22282
:10326000DD20C9F0AA2069F080E2800F883010F0DC
:1032700061100BC080912602A82AA09226020E940B
:103280002A07802F0E943B1315C080912702A82A8D
:10329000A0922702F4CF802F0E94E512AA2051F0BD
:1032A000005E8A2D083010F0611041C00E94230793
:1032B0000E942A07AB2DA850BB0B149710F40E9454
:1032C0001E08CC20A9F08091240280FD11C0F701D6
:1032D00012828595859585950E94AB0FC7010E9446
:1032E000C814809124028595859585950E94700F5C
:1032F00085E0F701D40101900D928A95E1F789816B
:103300009A810E946F079A81E981F0E026E0929FFE
:10331000E00DF11D112434E5839FE00DF11D112412
:10332000EE0FFF1FEA5BFD4F8591949159CB0E94F0
:103330001C07BECFF12FFF707F2E107F103219F0C7
:10334000729490EF7922662041F021E0621631F10B
:10335000DD2079F1AA2041F194CFDD2091F0909108
:103360002802892F8729A11003C00E94E807A2CF55
:1033700031E0A312FACF981709F49CCF809328026A
:1033800099CFA11006C00E941607872D0E94E10761
:1033900091CF81E0A81609F48DCFF5CFDD2031F073
:1033A00091E09A1508F486CF872DDFCFA11082CF48
:1033B000ECCFAA2051F3A9E36A1209C0BFEFE7EEF0
:1033C000F3E0B150E040F040E1F700C00000802F92
:1033D0000E94E5126FCF812F86958695837061F0EC
:1033E000813009F067CFC8019370D11002C090E01E
:1033F00080E00E94F2075ECFC8019370D11002C036
:1034000090E080E00E94080855CF802FDD2029F051
:103410000E94F3050E94F40E4DCF0E942C05FACFB6
:10342000812F837009F066C0D11044CF802F829520
:1034300086958770880F880F602F6F70462E512CED
:10344000712C612C082E04C0440C551C661C771C82
:103450000A94D2F740E050E0BA0104FF0FC04FE0F9
:1034600050E060E070E004C0440F551F661F771FF6
:103470008A95D2F74095509560957095812F8695E5
:1034800086958370823019F1D8F400912902109149
:103490002A0220912B0230912C02813069F04429BC
:1034A000552966297729CB01BA016023712382232C
:1034B00093230E94CC0FFECE402A512A622A732AFF
:1034C000CB01BA016429752986299729F2CF4429AD
:1034D0005529662977290091290210912A02209105
:1034E0002B0230912C02CB01BA0160277127822771
:1034F0009327DFCF8695DD2011F0812F81708823FF
:1035000009F4D8CE802F829586958770880F880F12
:10351000602F6F70462E512C712C612C082E04C028
:10352000440C551C661C771C0A94D2F740E050E00E
:10353000BA0104FF0FC04FE050E060E070E004C04B
:10354000440F551F661F771F8A95D2F740955095F7
:1035500060957095812F869586958370823019F1DC
:10356000D8F4009174021091750220917602309186
:103570007702813069F04429552966297729CB01E2
:10358000BA0160237123822393230E94350F92CEC8
:10359000402A512A622A732ACB01BA01642975296B
:1035A00086299729F2CF4429552966297729009140
:1035B0007402109175022091760230917702CB014E
:1035C000BA016027712782279327DFCF1F70DD2084
:1035D00029F0812F0E94AB0F802FC7CE802F0E9431
:1035E000E107812F0E94700F65CE802F22EF6216B7
:1035F00009F44EC0261578F030EF631619F191EFFB
:10360000691609F43DC0DD2009F465C0A11039CE6A
:10361000812F8F713AC0A3EF6A1609F43EC0B4EF50
:103620006B12F1CFDD2009F44BC01F71812F0E9476
:10363000AB0FF8E01F9FC001112483608093240228
:10364000812F23C0DD20B9F0A11034CE1F7161E0BD
:1036500070E080E090E004C0660F771F881F991F1C
:103660001A95D2F70091740210917502209176029A
:1036700030917702A6CFE1E0EA1508F41BCEE6CF41
:10368000812F8F71DD2009F4ADCF0E94AB0F12CED8
:10369000812F8F71DD20C9F3A5CF60E070E0CB01F1
:1036A000DD2009F472CF1F7161E070E080E090E0EE
:1036B00004C0660F771F881F991F1A95D2F765CF30
:1036C00081E00E94930F21E02A1508F0F3CD82E0FB
:1036D0000E94930FEFCDAA2059F0893309F077CEDD
:1036E0003FEF87EE93E0315080409040E1F76DCEA0
:1036F000812F8F7177CF85E0F7019E012F5F3F4FBC
:103700004901D90101900D928A95E1F7D7011296EE
:103710002C9189819A8121117AC90E946F07082F03
:103720007EC906311C4509F048CD8091B40169E29B
:10373000811165E38EE791E00E946A0631CD0F3D6D
:10374000ECE51E0709F42FCD0930FDE51F0709F44C
:103750002DCD01151C4509F030CD0E94D60F8FEFFD
:1037600094E3ACE081509040A040E1F700C000003D
:10377000F89481E08093E00080E28093D80010927A
:10378000C900EFE1FEE43197F1F700C000001DBA77
:10379000109268001CBC10BE1FBA10927A001092E2
:1037A0006E0010926F0010927100109272001092D1
:1037B000C9001092BC0014B817B81AB81DB810BAD6
:1037C0001092BC0015B818B81BB81EB811BA0C94EA
:1037D000003F1FCA1F93CF93DF938091BA01807F70
:1037E000A9F48091B701882389F08091EC01D091F0
:1037F000BB016091B5017091B601A091B801B09183
:10380000B901C62FC72316E0D81304C0DF91CF91AA
:103810001F91089590E0109711F0CF3F19F4019691
:103820008770F2CF189F9001199F300D1124F90174
:10383000E454FE4F41814713F2CF40814613EFCF4E
:1038400042814111ECCF438154814A1B5B0B4839C3
:10385000510528F78091BA018F7080618093BA0179
:10386000F901EF53FE4F80818F708061808385EB7B
:1038700091E00E94C814DF91CF911F910C94C6076C
:10388000AF92BF92CF92DF92EF92FF920F931F936E
:10389000CF93DF93CDB7DEB761970FB6F894DEBF55
:1038A0000FBECDBF8C0185E0F801DE011D960190B1
:1038B0000D928A95E1F7F80180819181E28025EBF4
:1038C000A22E21E0B22E6091B8017091B90161156C
:1038D000710509F43EC13091B5014091B601232F25
:1038E00024232F3F09F435C1C380D480F090B70161
:1038F000F601E61BF70BFF2009F4FBC02091BA018B
:10390000522F507FE839F10508F0BBC0511178C043
:10391000FE2C491321C038131FC0E1101DC02F70A9
:1039200020612093BA01C5010E94C8148091BA0198
:10393000F80185838F2D61960FB6F894DEBF0FBE18
:10394000CDBFDF91CF911F910F91FF90EF90DF904E
:10395000CF90BF90AF900895CD2829F0282F29232C
:103960002F3F09F014C120E0F22FF170DF2E20FF6D
:103970003DC02091EC014091BB0156E0241315C0DD
:103980008D879E878D859E850E94B10A292F22955D
:103990002F702230F8F0243020F59F70F9F0F801F4
:1039A0009581907FD9F4D12C1FC030E0529FF00157
:1039B000539FF00D1124E454FE4F6181961306C00D
:1039C0006081861303C06281E61210C02F5F3F4FF3
:1039D0002770D4CF9F7011F0882329F3805E883040
:1039E00010F3C8010E94C814FD2CA4CFEE2009F4E6
:1039F000A1CF8091BA0181608093BA01F12C9ACF56
:103A0000491312C0381310C0E1100EC0F80125830D
:103A1000C8010E94C81486E0F801A5EBB1E001904E
:103A20000D928A95E1F786CF8D879E878D859E853D
:103A30000E94BB0A882309F1EE20F9F08091BA01B7
:103A4000803270F02091B5013091B60138872F8314
:103A50001986DB86CA868C87CE0107960E94C81419
:103A600086E0F801A5EBB1E001900D928A95E1F7AF
:103A70000E94EA1BFF24F3945DCFC8010E94C81482
:103A8000F9CF51110AC085EB91E00E94C81486E07D
:103A9000F50111928A95E9F7B1CF49130FC0381398
:103AA0000DC0E1100BC0F8012583C8010E94C814A5
:103AB00086E0F50111928A95E9F73CCF8D879E87C4
:103AC0008D859E850E94BB0A8823B9F2EE20A9F25B
:103AD0008091BA01803220F22091B5013091B60177
:103AE0003A8329831B82DD82CC828E83CE010196AC
:103AF000B5CFE839F105E0F6FE2CEE2009F4BDCF94
:103B0000491316C0381314C08091BA0180FD83CFC9
:103B1000982F907F09F47FCFF8018583903F09F4B7
:103B200077CF982F907F905F8F70892B858370CF90
:103B30008D879E878D859E850E94BB0A811190CFBF
:103B40008091BA0181608093BA01C8010E94C814B3
:103B5000F1CEEE2009F491CF8D879E878D859E85CD
:103B60000E94BB0AF82E882309F487CF86E0F8016B
:103B7000A5EBB1E001900D928A95E1F78091B50136
:103B80009091B6010E94B10A0E94EA1BD3CE21E0B7
:103B90002E25EACE1F93CF93DF93CDB7DEB767977D
:103BA0000FB6F894DEBF0FBECDBF4B8B5C8B6D8B19
:103BB0007E8B8F8B1A8A198A85E0FE017396DE014F
:103BC0001D9601900D928A95E1F786E0FE013D96E3
:103BD000DE01179601900D928A95E1F7CE010796C6
:103BE0000E94401C811112C086E0FE013796DE0162
:103BF000119601900D928A95E1F78A859B85892B14
:103C000029F08F81988589238F3FB1F516E0809147
:103C1000EC019091BB0189131DC067960FB6F89413
:103C2000DEBF0FBECDBFDF91CF911F91089596E00B
:103C3000929FD001939FB00D1124A454BE4FFE015A
:103C4000319601900D929A95E1F78093BB010E9405
:103C5000C607DCCF819FC001112484549E4F0E946F
:103C6000401C8823D1F28091EC0190E0019687708E
:103C700099278093EC01CBCF2091BB0130E0C901A3
:103C80000196877099274091EC014817190679F63B
:103C90000E94D60F1092BB011092EC0186E0E5EB7A
:103CA000F1E0DF011D928A95E9F7B0CF8F929F92E4
:103CB000BF92CF92DF92EF92FF920F931F93CF9319
:103CC000DF938091200190912101892B91F08091C7
:103CD000A1018F5F8093A10181110BC00E943F0D54
:103CE00090E09093210180932001892B11F40E9490
:103CF000F60BE8E38E2EE2E09E2E740110E000E069
:103D000077E0C72EC00E802F0E94EB0C8C2D0E94F6
:103D1000EB0C802F0E94B60DE70199917E01D12C0A
:103D2000891729F0FE0131978083DD24D3948C2DEF
:103D30000E94B60DF7019681891709F47CC086832D
:103D400081E08D29182B0E94300B0F5F0730C1F6E0
:103D50000E94E80E6091A3017091A4019093A401C8
:103D60008093A3012091A20130E0261B370B820F24
:103D7000931F6BEF70E00E943E24E82E392F082F2E
:103D80008093A201F090A601FF2009F4E5C01092F3
:103D9000A601E0913202F0913302AF01425F5F4F22
:103DA00020E06BEFB62E6BEF70E0A191AB3FA1F07E
:103DB000CA2ED12C8E2D932F0A1708F43EC08C19D1
:103DC0009D09092E000CAA0BBB0B4E97A105B1054E
:103DD000D0F1DF011197BC92E417F50731F720937A
:103DE000A601111102C02111B9C01092A501A09124
:103DF0003202B09133029091A601EBE4F2E049E582
:103E000052E080E03191E40129914E01321751F0E6
:103E10003C913B3FD1F40C93BF0161507109EB0120
:103E2000288391E011964E175F0761F79093A601E2
:103E30008093A50197C080E084CFDB01AC19BD0958
:103E40008A0F9B1FBECF2F2DC7CF81E0EBCFF29EF5
:103E5000F001F39EF00D1124EA5FFE4FC288D38873
:103E6000C114D10419F498E9C92ED12CF29EE001B5
:103E7000F39ED00D1124CA5FDE4F8E818823B9F0E6
:103E80008D859E850E945B06C816D90680F40F9D1D
:103E9000600111248989811105C0C6018A5F9E4F86
:103EA0000E942A08C601845F9E4F0E944B080F5F44
:103EB000202F30E080911C01082E000C990B8217F6
:103EC00093072CF654C000E086E1F82EF1CF9170F4
:103ED000892B09F479C08091A8019091A9018130C2
:103EE000984780F010927A02609174027091750286
:103EF00080917602909177020E94FC0A1092A901AB
:103F00001092A8018091A8019091A9010196909327
:103F1000A9018093A801812FDF91CF911F910F916B
:103F2000FF90EF90DF90CF90BF909F908F9008957B
:103F30000E94F60A50C0892B71F31092A9011092C9
:103F4000A80160917402709175028091760290913F
:103F500077020E94FC0ADFCF111147CF8091A501A3
:103F6000811143CF80911C018F3F09F0ACCF80912C
:103F70001F0182FF17C00E94E80E2091B00130910E
:103F8000B101AC01421B530B20911D0130911E0168
:103F90004217530738F0BC018091B2019091B301F0
:103FA0000E9427148091A8019091A90120917A0282
:103FB000222309F4C0CF009709F089CF0E94ED0AAF
:103FC0000E94EA0A0E94E70AC091A701CC2309F4E3
:103FD000AFCF0E94EA0A81E0C827C093A7017BCF38
:103FE000CDB7DEB7C955D1090FB6F894DEBF0FBE05
:103FF000CDBF84B7877F84BF0FB6F894A895809112
:104000006000886180936000109260000FBE80E8BD
:1040100090E00FB6F89480936100909361000FBE1A
:1040200085B7806885BF85B7806885BF0E942703F4
:104030000E94F4038091E20084608093E20078940F
:104040008091A0028823A1F01091E9001F70909147
:10405000EC00892F817090FD80E8182B1092E90008
:104060008091E80083FD0E94EB0F1F701093E90020
:1040700082E084BD93E095BD9AEF97BD80936E007A
:104080000E943F0D90E090932101809320010E94B7
:10409000300B0E943F0BE8E3F2E06BE4662E62E037
:1040A000762E86E492E0D30111921D928E179F071F
:1040B000D9F78EE090E00E94EB2480933202909337
:1040C0003302FC010E962BEF21938E179F07E1F729
:1040D00090E080E00E94B1248F3E9E4F11F00E943C
:1040E000700C89EA8093800089E080938100249895
:1040F0002C983F988AB18F7C8AB96E98479A8BB179
:1041000080638BB9769A8FE090E00E94AB24609335
:1041100034027093350280933602909337026770B1
:104120004FEF649FB001112475956795759567955C
:104130007727709389006093880070938B00609359
:104140008A0070938D0060938C000E94F60B90E0C3
:1041500080E00E94B1248F3E9E4F11F00E94700CAF
:1041600082E090E00E94A324809365020E944C0BA1
:10417000909347028093460283E090E00E94A3243C
:10418000682F70E090E080E00E94CC0F6091740294
:104190007091750280917602909177020E94FC0ADC
:1041A00082E291E0909349028093480228E1C22E76
:1041B000D12C39E5A32E32E0B32E41E4842E912C8C
:1041C0008C0E9D1EF2E08F0E911C8091A002853016
:1041D00081F480E4F82E9EE0E92EE60C00E112E185
:1041E0008091A002853009F452C10E94D60F0E942E
:1041F0001E080E94561EE6E6F2E0ABE4B2E010E0D4
:1042000000E0302F8D912191281709F48AC190E0A8
:10421000FF24F3942827422F4F2109F47DC1619692
:104220009FAF619762963FAF62978F2191E009F44B
:1042300090E063969FAF63970E94E80E8160782FAD
:1042400065969FAF8EAF659761964FAD6197629609
:104250005FAD629763966FAD639765968FAD659717
:104260000E94CA1DF801EA59FD4F8081F826F082AC
:1042700085E0EFE5F2E0DE01119601900D928A955E
:10428000E1F7F0906002E09061021091620200910B
:104290006302109260021092610210926202109208
:1042A00063028F2D8E2909F448C080915D029091A0
:1042B0005E020E945B069C0190915C02992309F4C6
:1042C000F9C125313105C8F19F3F19F09F5F9093E7
:1042D0005C02FF2059F00E94CF059FEF1F140CF4E1
:1042E00091E0899F802D112480936002EE2059F087
:1042F0000E94CF059FEF1E140CF491E0899F802D42
:10430000112480936102309160023323B1F0209137
:104310006102222391F045EB3403C001112499235B
:1043200009F426C19093600245EB24039001112407
:10433000332309F421C130936102812F802B09F4CA
:1043400048C080915A0290915B020E945B069C01DA
:1043500090915902992309F4A8C125313105C8F17A
:104360009F3F19F09F5F90935902112359F00E94CB
:10437000AF059FEF11160CF491E0899F802D112459
:1043800080936202002359F00E94AF059FEF101640
:104390000CF491E0899F802D112480936302309169
:1043A00062023323B1F020916302222391F045EBA6
:1043B0003403C0011124992309F4E2C090936202EE
:1043C00045EB240390011124332309F4DDC030931D
:1043D00063028091600290916102892B9091620248
:1043E000892B90916302892B11F00E94F40E85E0D5
:1043F000FE013196AFE5B2E001900D928A95E1F7AA
:104400000E941E0890916402891721F00E941E08E4
:10441000809364028091A002843009F0D6CE85E0BA
:104420008093E9008091E80082FFCFCE8091E80080
:1044300090E085FF06C00E944603882309F4A8C0C7
:1044400091E08091E8008B778093E800992309F44C
:10445000BCCE19811111B8C080917A02882309F469
:10446000CEC010927A0281E08093790222961FAE2C
:10447000229723961FAE23978EEF24968FAF249713
:1044800063E0CE018F5B9F4F0E9415059ECE809109
:10449000A002843009F110924A020FB6F894A89550
:1044A000C09260000FBEF092600083B7817F84608D
:1044B00083BF83B7816083BF7894889583B78E7FED
:1044C00083BF0FB6F894A8958091600088618093AF
:1044D0006000109260000FBE80919F02882309F453
:1044E0007FCE0E943F0D90E09093210180932001A8
:1044F0000E94300B0E943F0BEBE4F2E01192AE16EB
:10450000BF06E1F70E94561EEBE4F2E081918111B3
:10451000B6C0EE12FBCF64CE9F5FFF0C963009F061
:104520007ACE0F5F1F4F0E30110509F06ACE8FEF64
:1045300066968FAF669767968FAF679768961FAE40
:1045400068970E94E80E8160782F6A969FAF8EAFC1
:104550006A9766964FAD669767965FAD6797689660
:104560006FAD68976A968FAD6A970E94CA1D80CE1C
:1045700081E080936002D8CE81E080936102DDCE3D
:1045800081E0809362021CCF81E08093630221CF9F
:1045900000E410E0CE0101967C018091E80085FDE9
:1045A0000AC08091E8008B778093E8000E94460360
:1045B000882399F345CF8091F100F70181937F0122
:1045C0000150110951F73CCF1130C9F422961FAEAA
:1045D000229723961FAF23978CE0E2E3F1E0D4010A
:1045E00001900D928A95E1F78EEF60968FAF6097FC
:1045F0006FE0CE018F5B9F4F0E941505E6CD809145
:1046000079028823D1F1123041F01330F9F081E0C2
:1046100022968FAF229761E034CF6091740270913F
:10462000750280917602909177020E94C9062296C7
:104630001FAE229723961FAF239724968FAF249700
:104640008EEF25968FAF259764E01BCF8A8181304E
:1046500041F0882341F08230D1F681E080937802E6
:1046600002C01092780222961FAE229783E0239612
:104670008FAF239780917802E0CF8FEFC9CF09BD2C
:1046800019BD09B400FEFDCF8091D8008F7D8093C5
:10469000D8008091E00082608093E0008091E0008B
:1046A00081FDFCCF0E94D60F9BCD2139314008F00F
:1046B00059CE8FCE232B09F009CE3FCE1F921FB6C5
:1046C0001F9211248F939F93AF93BF9380914A02BF
:1046D000811113C080912D0290912E02A0912F0282
:1046E000B09130024196A11DB11D80932D0290938F
:1046F0002E02A0932F02B0933002BF91AF919F91F1
:104700008F911F901FBE1F9018951092B9008CE0DA
:104710008093B8000895EF92FF920F931F93CF9369
:10472000DF93182FEB011092BC0084EA8093BC0049
:104730000E94E80E7C018091BC0087FF27C0809119
:10474000B900887F883029F08091B900887F803156
:10475000D9F51093BB0084E88093BC000E94E80E5A
:104760008C018091BC0087FF24C02091B900287F74
:1047700090E080E02831B1F081E090E0203411F445
:1047800090E080E09195819591090CC0CF3FDC07C6
:1047900091F20E94E80E8E199F098C179D0758F21E
:1047A0008EEF9FEFDF91CF911F910F91FF90EF90D0
:1047B0000895CF3FDC07A9F20E94E80E801B910B01
:1047C0008C179D0770F2ECCF8FEF9FEFEBCF0F931D
:1047D0001F93CF93DF93EB018093BB0084E880931A
:1047E000BC000E94E80E8C018091BC0087FF11C0C4
:1047F0002091B900287F81E090E0283211F490E008
:1048000080E0919581959109DF91CF911F910F9152
:104810000895CF3FDC0741F30E94E80E801B910B07
:104820008C179D0708F38EEF9FEFEECF0F931F932A
:10483000CF93DF93EC0184E88093BC000E94E80EE4
:104840008C018091BC0087FF08C08091BB0090E084
:10485000DF91CF911F910F910895CF3FDC0789F32E
:104860000E94E80E801B910B8C179D0750F38EEF72
:104870009FEFEECF84E98093BC000895AA1BBB1B79
:1048800051E107C0AA1FBB1FA617B70710F0A61B50
:10489000B70B881F991F5A95A9F780959095BC0171
:1048A000CD01089597FB072E16F4009407D077FDED
:1048B00009D00E943E2407FC05D03EF490958195D6
:1048C0009F4F0895709561957F4F0895EE0FFF1FDC
:1048D0000590F491E02D09942F923F924F925F92B0
:1048E0006F927F928F929F92AF92BF92CF92DF9200
:1048F000EF92FF920F931F93CF93DF93CDB7DEB765
:10490000CA1BDB0B0FB6F894DEBF0FBECDBF0994F8
:104910002A88398848885F846E847D848C849B844F
:10492000AA84B984C884DF80EE80FD800C811B815D
:10493000AA81B981CE0FD11D0FB6F894DEBF0FBE8C
:10494000CDBFED010895F999FECF92BD81BDF89AD2
:10495000992780B50895A6E1B0E044E050E00C94BA
:10496000DD24A8E1B0E042E050E00C94DD24262FE5
:10497000F999FECF92BD81BDF89A019700B4021655
:1049800039F01FBA20BD0FB6F894FA9AF99A0FBE03
:1049900008950396272F0E94B8240E94B724252F3C
:1049A0000E94B824242F0C94B8240196272F0E942B
:1049B000B8240C94B724DC01CB01FC01F999FECF9B
:1049C00006C0F2BDE1BDF89A319600B40D92415097
:1049D0005040B8F708950F931F93CF93DF93823021
:1049E000910510F482E090E0E091AF02F091B00206
:1049F00030E020E0B0E0A0E0309799F421153105D7
:104A000009F447C0281B390B24303105C0F58A81D1
:104A10009B816115710571F1FB0193838283FE0116
:104A200011C0408151810281138148175907F8F064
:104A30004817590799F4109761F012960C93129742
:104A400013961C933296CF01DF91CF911F910F9156
:104A500008950093AF021093B002F4CF21153105F1
:104A600019F04217530718F49A01BD01EF01DF0155
:104A7000F801C2CF9093B0028093AF02D0CFFE0175
:104A8000E20FF31F819391932250310939832883D8
:104A9000DACF2091AD023091AE02232B41F4209168
:104AA0000201309103013093AE022093AD022091B8
:104AB0000001309101012115310541F42DB73EB7B8
:104AC0004091040150910501241B350B4091AD022A
:104AD0005091AE024217530708F0B5CF241B350B97
:104AE0002817390708F4AFCFBC016E5F7F4F261738
:104AF000370708F4A8CF640F751F7093AE02609358
:104B0000AD02FA01819391939ECFCF93DF930097EB
:104B1000E9F0FC01329713821282C091AF02D0916A
:104B2000B002DE0130E020E02097A1F42081318145
:104B3000820F931F2091AD023091AE0228173907E2
:104B400009F067C0F093AE02E093AD02DF91CF9120
:104B50000895DA01AE17BF0708F040C012964D91D4
:104B60005C9113979D014115510599F7D901139651
:104B7000FC93EE9312974D915D91A40FB51FEA1728
:104B8000FB0779F4808191810296840F951FD901EA
:104B900011969C938E938281938113969C938E930E
:104BA0001297B0E0A0E08A819B810097B9F5FE01E1
:104BB00081919191E80FF91F8091AD029091AE0221
:104BC0008E179F0719F6109761F51092B002109298
:104BD000AF02D093AE02C093AD02B8CFB383A2832D
:104BE00040815181840F951FA817B90771F44E5F5A
:104BF0005F4F8D919C911197480F591F51834083AE
:104C000012968D919C91938382832115310509F031
:104C1000ADCFF093B002E093AF0298CFDE01EC018C
:104C2000C2CF13961C921E921297D3CFAEE0B0E083
:104C3000ECE1F6E20C947A240D891E898F89988D17
:104C400026E02C831A83098397FF02C080E090E856
:104C500001979E838D83AE01455E5F4F698D7A8D8E
:104C6000CE0101960E9446264D815E8157FD0AC005
:104C70002F813885421753070CF49A01020F131F36
:104C8000F80110822E96E4E00C949624ABE0B0E09C
:104C9000ECE4F6E20C946C247C013B018A01FC01FB
:104CA00017821682838181FFB9C19AE0292ECE0135
:104CB00001965C01F7019381F30193FD859193FFC8
:104CC00081913F01882309F446C1853239F493FD6F
:104CD000859193FF81913F01853229F4B70190E0DE
:104CE0000E942728E7CF912C412C512CFFE1F5158C
:104CF00038F08B3209F188F4803201F1833221F1EE
:104D000057FC3AC020ED280F2A3040F556FE1FC050
:104D1000929C200D1124922E06C08D3291F080338A
:104D200079F7689450F8F30193FD859193FF819191
:104D30003F018111DBCF20C0689451F8689452F88C
:104D4000F2CF689453F8EFCF689454F8ECCF429CBC
:104D5000200D1124422E689455F8E5CF8E3229F4A7
:104D600056FCF9C0689456F8DECF8C3619F4689476
:104D700057F8D9CF8836B9F2982F9F7D9554933044
:104D8000C0F08336A1F18337C1F1833509F05BC0F0
:104D9000F801C190D1908F01692D70E056FC02C0DE
:104DA0006FEF7FEFC6010E9411284C01689457F8FD
:104DB0000AC00C5F1F4F2FE3298388248394912C12
:104DC0006501E89457F853FC04C04814190409F02D
:104DD00018F5342C8114910431F5332009F46ACF8D
:104DE000B70180E290E00E9427283A94F6CFF801BC
:104DF000808189830E5F1F4FE0CFF801C190D19071
:104E00008F01692D70E056FC02C06FEF7FEFC60185
:104E10000E941C284C01D5CFB70180E290E00E948F
:104E200027284A94D2CFF60157FC859157FE8191ED
:104E30006F01B70190E00E94272831103A94F1E009
:104E40008F1A9108C7CF843619F0893609F074C0DB
:104E5000F80157FE6AC061917191819191918F0122
:104E6000252D2F76D22E97FF09C0909580957095AD
:104E700061957F4F8F4F9F4F6894D7F82AE030E0BD
:104E8000A5010E945728C82ECA188C2C5D2CD6FE6E
:104E90000CC0E89450F8C91440F4D4FE05C0D2FC0C
:104EA00003C0FD2DFE7E5F2E892C54FE8FC0FE01B7
:104EB000EC0DF11D8081803309F081C0252D297E04
:104EC000522E852D8870382E53FC8FC050FE89C01D
:104ED0009C2C841418F44C0C942C981854FE8BC001
:104EE000B70180E390E00E94272852FE09C088E7BE
:104EF00090E051FE02C088E590E0B7010E942728AB
:104F0000C91408F484C0CA94D12C9FEFC91AD90AD5
:104F1000CA0CDB1CF60182916F01B70190E00E9480
:104F20002728AC14BD04B1F758CF61917191072EB9
:104F3000000C880B990B93CFD52CE894D4F82AE079
:104F400030E0853739F1952D997FD92E8F3601F1D3
:104F500048F48835A9F0F701868197812B96E2E124
:104F60000C948824803749F08837A9F7D4FE02C012
:104F70006894D2F820E130E00DC06894D4F8F6CF00
:104F800054FE03C0E92FE660DE2E20E132E002C0CD
:104F900028E030E0F801D7FE0DC061917191819158
:104FA00091918F01A5010E945728C82ECA18E89434
:104FB000D7F86BCF6191719190E080E0F2CF52FC15
:104FC00002C083947ECF839483947BCF852D867893
:104FD00009F477CFF6CFB70180E290E00E9427284E
:104FE00083948414C0F3312C79CF342C3818841472
:104FF00008F474CFF8CF852D867809F481CF8BE241
:1050000051FE80E257FC8DE2B70190E077CFB70107
:1050100080E390E00E9427289A9472CF8FEF9FEF51
:105020009DCFFC010590615070400110D8F780952C
:1050300090958E0F9F1F0895FC0161507040019064
:105040000110D8F7809590958E0F9F1F08950F93AC
:105050001F93CF93DF93182F092FEB018B8181FDD5
:1050600009C01FEF0FEF812F902FDF91CF911F917C
:105070000F91089582FF14C02E813F818C819D8104
:10508000281739073CF4E881F981CF01019699830B
:10509000888310838E819F8101969F838E83E3CFC7
:1050A000E885F985812F0995892BA1F3DACFFA01DB
:1050B000AA27283051F1203181F1E8946F936E7F57
:1050C0006E5F7F4F8F4F9F4FAF4FB1E03ED0B4E048
:1050D0003CD0670F781F891F9A1FA11D680F791F89
:1050E0008A1F911DA11D6A0F711D811D911DA11D9A
:1050F00020D009F468943F912AE0269F11243019AA
:10510000305D3193DEF6CF010895462F4770405D44
:105110004193B3E00FD0C9F7F6CF462F4F70405DF3
:105120004A3318F0495D31FD4052419302D0A9F74E
:10513000EACFB4E0A6959795879577956795BA9548
:10514000C9F700976105710508959B01AC010A2E0E
:1051500006945795479537952795BA95C9F7620FE5
:10516000731F841F951FA01D0895F894FFCFCA0ACE
:10517000CA0AD30AD30AD50AD30AD30AD30ACA0A57
:10518000CA0ADA0AD30AD30ADA0A170B230B280B46
:10519000210B260B2D0B2B0B0C1134118912341102
:1051A000891267118811891234124112281928199D
:1051B0009A199A19EB19051A5A195A19101AE61A56
:0451C000F51AF51ACD
:1051C4000000B102200085149B142313000000008A
:1051D400000000000000000000000000FFAF00011C
:1051E40020001205B60B950B910B8D0B010A25645B
:1051F4000A00626E7261512F42724B4544008182F3
:1052040083E200E900EA00B500B600B700CD0083F0
:1052140001CC008A01920194012102230224022577
:1052240002260227022A02B300B4006F0070004075
:0E5234004D6D66011901AC001E0537055005D1
:00000001FF
